{"contracts/CertificateRegistry.sol":{"CertificateRegistry":{"abi":[{"inputs":[],"stateMutability":"nonpayable","type":"constructor"},{"inputs":[],"name":"AccessControlBadConfirmation","type":"error"},{"inputs":[{"internalType":"address","name":"account","type":"address"},{"internalType":"bytes32","name":"neededRole","type":"bytes32"}],"name":"AccessControlUnauthorizedAccount","type":"error"},{"inputs":[],"name":"EnforcedPause","type":"error"},{"inputs":[],"name":"ExpectedPause","type":"error"},{"inputs":[],"name":"ReentrancyGuardReentrantCall","type":"error"},{"anonymous":false,"inputs":[{"indexed":true,"internalType":"uint256","name":"certificateId","type":"uint256"},{"indexed":true,"internalType":"address","name":"student","type":"address"},{"indexed":false,"internalType":"string","name":"courseId","type":"string"},{"indexed":false,"internalType":"string","name":"ipfsHash","type":"string"},{"indexed":false,"internalType":"uint256","name":"timestamp","type":"uint256"}],"name":"CertificateMinted","type":"event"},{"anonymous":false,"inputs":[{"indexed":true,"internalType":"uint256","name":"certificateId","type":"uint256"},{"indexed":true,"internalType":"address","name":"revokedBy","type":"address"},{"indexed":false,"internalType":"uint256","name":"timestamp","type":"uint256"}],"name":"CertificateRevoked","type":"event"},{"anonymous":false,"inputs":[{"indexed":true,"internalType":"uint256","name":"certificateId","type":"uint256"},{"indexed":true,"internalType":"address","name":"verifier","type":"address"},{"indexed":false,"internalType":"bool","name":"isValid","type":"bool"},{"indexed":false,"internalType":"uint256","name":"timestamp","type":"uint256"}],"name":"CertificateVerified","type":"event"},{"anonymous":false,"inputs":[{"indexed":false,"internalType":"address","name":"account","type":"address"}],"name":"Paused","type":"event"},{"anonymous":false,"inputs":[{"indexed":true,"internalType":"bytes32","name":"role","type":"bytes32"},{"indexed":true,"internalType":"bytes32","name":"previousAdminRole","type":"bytes32"},{"indexed":true,"internalType":"bytes32","name":"newAdminRole","type":"bytes32"}],"name":"RoleAdminChanged","type":"event"},{"anonymous":false,"inputs":[{"indexed":true,"internalType":"bytes32","name":"role","type":"bytes32"},{"indexed":true,"internalType":"address","name":"account","type":"address"},{"indexed":true,"internalType":"address","name":"sender","type":"address"}],"name":"RoleGranted","type":"event"},{"anonymous":false,"inputs":[{"indexed":true,"internalType":"bytes32","name":"role","type":"bytes32"},{"indexed":true,"internalType":"address","name":"account","type":"address"},{"indexed":true,"internalType":"address","name":"sender","type":"address"}],"name":"RoleRevoked","type":"event"},{"anonymous":false,"inputs":[{"indexed":false,"internalType":"address","name":"account","type":"address"}],"name":"Unpaused","type":"event"},{"inputs":[],"name":"ADMIN_ROLE","outputs":[{"internalType":"bytes32","name":"","type":"bytes32"}],"stateMutability":"view","type":"function"},{"inputs":[],"name":"DEFAULT_ADMIN_ROLE","outputs":[{"internalType":"bytes32","name":"","type":"bytes32"}],"stateMutability":"view","type":"function"},{"inputs":[],"name":"MINTER_ROLE","outputs":[{"internalType":"bytes32","name":"","type":"bytes32"}],"stateMutability":"view","type":"function"},{"inputs":[{"internalType":"uint256","name":"","type":"uint256"}],"name":"certificates","outputs":[{"internalType":"uint256","name":"id","type":"uint256"},{"internalType":"address","name":"student","type":"address"},{"internalType":"string","name":"courseId","type":"string"},{"internalType":"string","name":"courseName","type":"string"},{"internalType":"uint256","name":"completionDate","type":"uint256"},{"internalType":"string","name":"ipfsHash","type":"string"},{"internalType":"bool","name":"isValid","type":"bool"},{"internalType":"uint256","name":"mintedAt","type":"uint256"}],"stateMutability":"view","type":"function"},{"inputs":[{"internalType":"uint256","name":"_certificateId","type":"uint256"}],"name":"getCertificate","outputs":[{"components":[{"internalType":"uint256","name":"id","type":"uint256"},{"internalType":"address","name":"student","type":"address"},{"internalType":"string","name":"courseId","type":"string"},{"internalType":"string","name":"courseName","type":"string"},{"internalType":"uint256","name":"completionDate","type":"uint256"},{"internalType":"string","name":"ipfsHash","type":"string"},{"internalType":"bool","name":"isValid","type":"bool"},{"internalType":"uint256","name":"mintedAt","type":"uint256"}],"internalType":"struct CertificateRegistry.Certificate","name":"","type":"tuple"}],"stateMutability":"view","type":"function"},{"inputs":[{"internalType":"bytes32","name":"role","type":"bytes32"}],"name":"getRoleAdmin","outputs":[{"internalType":"bytes32","name":"","type":"bytes32"}],"stateMutability":"view","type":"function"},{"inputs":[{"internalType":"address","name":"_student","type":"address"}],"name":"getStudentCertificates","outputs":[{"internalType":"uint256[]","name":"","type":"uint256[]"}],"stateMutability":"view","type":"function"},{"inputs":[{"internalType":"bytes32","name":"role","type":"bytes32"},{"internalType":"address","name":"account","type":"address"}],"name":"grantRole","outputs":[],"stateMutability":"nonpayable","type":"function"},{"inputs":[{"internalType":"bytes32","name":"role","type":"bytes32"},{"internalType":"address","name":"account","type":"address"}],"name":"hasRole","outputs":[{"internalType":"bool","name":"","type":"bool"}],"stateMutability":"view","type":"function"},{"inputs":[{"internalType":"address","name":"_account","type":"address"},{"internalType":"bytes32","name":"_role","type":"bytes32"}],"name":"hasRole","outputs":[{"internalType":"bool","name":"","type":"bool"}],"stateMutability":"view","type":"function"},{"inputs":[{"internalType":"uint256","name":"_certificateId","type":"uint256"}],"name":"logVerification","outputs":[],"stateMutability":"nonpayable","type":"function"},{"inputs":[{"internalType":"address","name":"_student","type":"address"},{"internalType":"string","name":"_courseId","type":"string"},{"internalType":"string","name":"_courseName","type":"string"},{"internalType":"uint256","name":"_completionDate","type":"uint256"},{"internalType":"string","name":"_ipfsHash","type":"string"}],"name":"mintCertificate","outputs":[{"internalType":"uint256","name":"","type":"uint256"}],"stateMutability":"nonpayable","type":"function"},{"inputs":[],"name":"pause","outputs":[],"stateMutability":"nonpayable","type":"function"},{"inputs":[],"name":"paused","outputs":[{"internalType":"bool","name":"","type":"bool"}],"stateMutability":"view","type":"function"},{"inputs":[{"internalType":"bytes32","name":"role","type":"bytes32"},{"internalType":"address","name":"callerConfirmation","type":"address"}],"name":"renounceRole","outputs":[],"stateMutability":"nonpayable","type":"function"},{"inputs":[{"internalType":"uint256","name":"_certificateId","type":"uint256"}],"name":"revokeCertificate","outputs":[],"stateMutability":"nonpayable","type":"function"},{"inputs":[{"internalType":"bytes32","name":"role","type":"bytes32"},{"internalType":"address","name":"account","type":"address"}],"name":"revokeRole","outputs":[],"stateMutability":"nonpayable","type":"function"},{"inputs":[{"internalType":"address","name":"","type":"address"},{"internalType":"uint256","name":"","type":"uint256"}],"name":"studentCertificates","outputs":[{"internalType":"uint256","name":"","type":"uint256"}],"stateMutability":"view","type":"function"},{"inputs":[{"internalType":"bytes4","name":"interfaceId","type":"bytes4"}],"name":"supportsInterface","outputs":[{"internalType":"bool","name":"","type":"bool"}],"stateMutability":"view","type":"function"},{"inputs":[],"name":"totalCertificates","outputs":[{"internalType":"uint256","name":"","type":"uint256"}],"stateMutability":"view","type":"function"},{"inputs":[],"name":"unpause","outputs":[],"stateMutability":"nonpayable","type":"function"},{"inputs":[{"internalType":"string","name":"","type":"string"}],"name":"usedHashes","outputs":[{"internalType":"bool","name":"","type":"bool"}],"stateMutability":"view","type":"function"},{"inputs":[{"internalType":"uint256","name":"_certificateId","type":"uint256"}],"name":"verifyCertificate","outputs":[{"internalType":"bool","name":"isValid","type":"bool"},{"internalType":"address","name":"student","type":"address"},{"internalType":"string","name":"courseId","type":"string"},{"internalType":"string","name":"courseName","type":"string"},{"internalType":"uint256","name":"completionDate","type":"uint256"},{"internalType":"string","name":"ipfsHash","type":"string"}],"stateMutability":"view","type":"function"}],"evm":{"bytecode":{"linkReferences":{},"object":"6080604052346200002657620000146200004a565b604051611bdc6200026d8239611bdc90f35b600080fd5b6200003b6200003b6200003b9290565b90565b6200003b60006200002b565b6200005462000103565b620000c4620000626200003e565b6200006f338092620001a4565b506200009c817fa49807205ce4d355092ef5a8a18f56e8913cf4a201fbe287825b095693c21775620001a4565b507f9f2df0fed2c77648de5860a4cc508cd0818c85b8b8a1ab4ceeef8d981c8956a6620001a4565b50565b6200003b60016200002b565b90600019905b9181191691161790565b90620000f76200003b620000ff926200002b565b8254620000d3565b9055565b6200011962000111620000c7565b6002620000e3565b565b9062000127906200003b565b600052602052604060002090565b6200003b906200014b906001600160a01b031682565b6001600160a01b031690565b6200003b9062000135565b6200003b9062000157565b90620001279062000162565b9060ff90620000d9565b151590565b906200019c6200003b620000ff9262000183565b825462000179565b620001b8620001b483836200024e565b1590565b156200023557600191620001e683620001e0836000620001d987826200011b565b016200016d565b62000188565b3390620002236200021c6200021c7f2f8788117e7eff1d82e926ec794901d17c78024a50270940304540a733656f0d956200003b565b9262000162565b926200022e60405190565b600090a490565b5050600090565b60ff1690565b6200003b90546200023c565b6200003b916200026691620001d9600091826200011b565b6200024256fe6080604052600436101561001257600080fd5b60003560e01c806301ffc9a71461018257806306f5497e1461017d5780631692a94214610178578063248a9ca3146101735780632f2ff15d1461016e57806336568abe146101695780633f4ba83a1461016457806351640fee1461015f578063542d2a971461015a57806355fa81e614610155578063596b772f146101505780635c975abb1461014b578063663b3e221461014657806375b238fc146101415780638456cb591461013c57806391d1485414610137578063a217fddf14610132578063ac4ab3fb1461012d578063bd1f5f3114610128578063c3934f0e14610123578063d53913931461011e578063d547741f146101195763ebc63bc00361018757610c0c565b610b78565b610b3f565b610b23565b610a4f565b610984565b610946565b610918565b610900565b6108d9565b6108a2565b610657565b61063c565b610624565b610605565b610494565b6103e5565b6103c1565b6103a8565b61033d565b610309565b61021d565b6101c5565b600080fd5b6001600160e01b031981165b0361018757565b905035906101ac8261018c565b565b90602082820312610187576101c29161019f565b90565b34610187576101f26101e06101db3660046101ae565b611b49565b60405191829182901515815260200190565b0390f35b80610198565b905035906101ac826101f6565b90602082820312610187576101c2916101fc565b3461018757610235610230366004610209565b6119ff565b604051005b6001600160a01b031690565b60005b8381106102595750506000910152565b8181015183820152602001610249565b61028a61029360209361029d9361027e815190565b80835293849260200190565b95869101610246565b601f01601f191690565b0190565b92936102e66102f4926101c298966102d96102fc966102c960c08a019460008b019015159052565b6001600160a01b03166020890152565b8682036040880152610269565b908482036060860152610269565b936080830152565b60a0818403910152610269565b34610187576101f261032461031f366004610209565b611702565b9261033496949692919260405190565b968796876102a1565b34610187576101f2610358610353366004610209565b610c58565b6040515b9182918290815260200190565b6001600160a01b038116610198565b905035906101ac82610369565b9190604083820312610187576101c29061039f81856101fc565b93602001610378565b34610187576102356103bb366004610385565b90610c9a565b34610187576102356103d4366004610385565b90610d31565b600091031261018757565b34610187576103f53660046103da565b610235611ad0565b805182526020808201516001600160a01b031690830152906101c29060e08061046f61044e61043c610100860160408901518782036040890152610269565b60608801518682036060880152610269565b61045d60808801516080870152565b60a087015185820360a0870152610269565b60c080870151151590850152940151910152565b60208082526101c2929101906103fd565b34610187576101f26104af6104aa366004610209565b6118ec565b60405191829182610483565b634e487b7160e01b600052604160045260246000fd5b90601f01601f1916810190811067ffffffffffffffff8211176104f357604052565b6104bb565b906101ac61050560405190565b92836104d1565b67ffffffffffffffff81116104f357602090601f01601f19160190565b90826000939282370152565b9092919261054a6105458261050c565b6104f8565b93818552602085019082840111610187576101ac92610529565b9080601f83011215610187578160206101c293359101610535565b91909160a081840312610187576105968382610378565b92602082013567ffffffffffffffff811161018757816105b7918401610564565b92604083013567ffffffffffffffff811161018757826105d8918501610564565b926105e683606083016101fc565b92608082013567ffffffffffffffff8111610187576101c29201610564565b34610187576101f261035861061b36600461057f565b93929092611558565b3461018757610235610637366004610209565b611795565b346101875761064c3660046103da565b6101f2610358611a11565b34610187576106673660046103da565b6101f26101e0610e72565b6101c26101c26101c29290565b9061068990610672565b600052602052604060002090565b6101c29081565b6101c29054610697565b634e487b7160e01b600052602260045260246000fd5b90600160028304921680156106de575b60208310146106d957565b6106a8565b91607f16916106ce565b805460009392916107056106fb836106be565b8085529360200190565b9160018116908115610757575060011461071e57505050565b6107319192939450600052602060002090565b916000925b8184106107435750500190565b805484840152602090930192600101610736565b92949550505060ff1916825215156020020190565b906101c2916106e8565b906101ac6107909261078760405190565b9384809261076c565b03836104d1565b6101c2905b60ff1690565b6101c29054610797565b6107b790600461067f565b906107c18261069e565b916107d660018201546001600160a01b031690565b916107e360028301610776565b916107f060038201610776565b916107fd6004830161069e565b9161080a60058201610776565b916101c2600761081c600685016107a2565b930161069e565b939561088761087f6101ac999b9a986108718861089e986108646108949961085460e09e9a60006101008701960152565b6001600160a01b031660208d0152565b8a820360408c0152610269565b9088820360608a0152610269565b926080870152565b84820360a0860152610269565b96151560c0830152565b0152565b34610187576101f26108bd6108b8366004610209565b6107ac565b946108d098969894919493929360405190565b98899889610823565b34610187576108e93660046103da565b6101f2600080516020611b87833981519152610358565b34610187576109103660046103da565b610235611a3d565b34610187576101f26101e061092e366004610385565b90610c39565b6101c26000610672565b6101c2610934565b34610187576109563660046103da565b6101f261035861093e565b9190604083820312610187576101c29061097b8185610378565b936020016101fc565b34610187576101f26101e061099a366004610961565b90611a08565b9060208282031261018757813567ffffffffffffffff8111610187576101c29201610564565b61029d6109de926020926109d8815190565b94859290565b93849101610246565b6109f761029d91602094936109c6565b918252565b610a11610a0860405190565b928392836109e7565b03902090565b6101c2916109fc565b6101c2916008021c61079c565b906101c29154610a20565b6101c290610a4a600691600092610a17565b610a2d565b34610187576101f26101e0610a653660046109a0565b610a38565b6101c29061023a906001600160a01b031682565b6101c290610a6a565b6101c290610a7e565b9061068990610a87565b634e487b7160e01b600052603260045260246000fd5b8054821015610ad357610aca600191600052602060002090565b91020190600090565b610a9a565b6101c2916008021c81565b906101c29154610ad8565b610afc600591600092610a90565b90610b05825490565b831015610b2057506101c291610b1a91610ab0565b90610ae3565b80fd5b34610187576101f2610358610b39366004610961565b90610aee565b3461018757610b4f3660046103da565b6101f27f9f2df0fed2c77648de5860a4cc508cd0818c85b8b8a1ab4ceeef8d981c8956a6610358565b3461018757610235610b8b366004610385565b90610d27565b90602082820312610187576101c291610378565b90610bc5610bbe610bb4845190565b8084529260200190565b9260200190565b9060005b818110610bd65750505090565b909192610bf3610bec6001928651815260200190565b9460200190565b929101610bc9565b60208082526101c292910190610ba5565b34610187576101f2610c27610c22366004610b91565b61188b565b60405191829182610bfb565b90610689565b6101c291610c5391610c4d60009182610c33565b01610a90565b6107a2565b6001610c716101c292610c69600090565b506000610c33565b0161069e565b906101ac91610c8d610c8882610c58565b610ca4565b90610c9791610d8f565b50565b906101ac91610c77565b6101ac903390610ccc565b6001600160a01b0390911681526040810192916101ac9160200152565b90610cde610cda8284610c39565b1590565b610ce6575050565b610d08610cf260405190565b63e2517d3f60e01b815292839260048401610caf565b0390fd5b906101ac91610d1d610c8882610c58565b90610c9791610e0b565b906101ac91610d0c565b90610d3b3361023a565b6001600160a01b03821603610d5357610c9791610e0b565b60405163334bd91960e11b8152600490fd5b9060ff905b9181191691161790565b90610d846101c2610d8b92151590565b8254610d65565b9055565b610d9c610cda8383610c39565b15610e0457600191610dbd83610db8836000610c4d8782610c33565b610d74565b3390610df3610ded610ded7f2f8788117e7eff1d82e926ec794901d17c78024a50270940304540a733656f0d9590565b92610a87565b92610dfd60405190565b600090a490565b5050600090565b90610e168183610c39565b15610e0457610e2f6000610db88382610c4d8782610c33565b3390610e5f610ded610ded7ff6391f5c32d9c69d2a47ea670b442974b53935d1edc7fd64eb21e047a839171b9590565b92610e6960405190565b600090a4600190565b6101c260016107a2565b6101c2959493929190610eae7f9f2df0fed2c77648de5860a4cc508cd0818c85b8b8a1ab4ceeef8d981c8956a6610ca4565b906101c29594939291610ebf611567565b90610ed59594939291610ed0611591565b6113b7565b906101ac6115db565b61023a6101c26101c29290565b6101c290610ede565b15610efb57565b60405162461bcd60e51b815260206004820152601760248201527f496e76616c69642073747564656e7420616464726573730000000000000000006044820152606490fd5b15610f4757565b60405162461bcd60e51b815260206004820152601260248201527110dbdd5c9cd9481251081c995c5d5a5c995960721b6044820152606490fd5b15610f8857565b60405162461bcd60e51b815260206004820152601460248201527310dbdd5c9cd9481b985b59481c995c5d5a5c995960621b6044820152606490fd5b15610fcb57565b60405162461bcd60e51b815260206004820152601260248201527112541194c81a185cda081c995c5d5a5c995960721b6044820152606490fd5b1561100c57565b60405162461bcd60e51b815260206004820152601760248201527f496e76616c696420636f6d706c6574696f6e20646174650000000000000000006044820152606490fd5b1561105857565b60405162461bcd60e51b815260206004820152601a60248201527f436572746966696361746520616c7265616479206578697374730000000000006044820152606490fd5b634e487b7160e01b600052601160045260246000fd5b60001981146110c25760010190565b61109d565b9060001990610d6a565b906110e16101c2610d8b92610672565b82546110c7565b6101c26101006104f8565b906001600160a01b0390610d6a565b906111126101c2610d8b92610a87565b82546110f3565b9160001960089290920291821b911b610d6a565b919061113e6101c2610d8b93610672565b908354611119565b6101ac9160009161112d565b81811061115d575050565b8061116b6000600193611146565b01611152565b9190601f811161118057505050565b6111926101ac93600052602060002090565b906020601f8401819004830193106111b4575b6020601f909101040190611152565b90915081906111a5565b906111c7815190565b9067ffffffffffffffff82116104f3576111eb826111e585546106be565b85611171565b602090601f831160011461122657610d8b92916000918361121b575b5050600019600883021c1916906002021790565b015190503880611207565b601f1983169161123b85600052602060002090565b9260005b81811061127957509160029391856001969410611260575b50505002019055565b01516000196008601f8516021c19169055388080611257565b9193602060018192878701518155019501920161123f565b906101ac916111be565b6101ac91906112b49060e0906007906112ba8185875190565b906110d1565b6112db600182016112d560208801516001600160a01b031690565b90611102565b6112f3600282016112ed604088015190565b90611291565b611305600382016112ed606088015190565b611317600482016112b4608088015190565b611329600582016112ed60a088015190565b6113436006820161133d60c0880151151590565b90610d74565b0192015190565b906101ac9161129b565b90815491680100000000000000008310156104f3578261137c9160016101ac95018155610ab0565b9061112d565b9392906113b26101ac936113a4604093606089019089820360008b0152610269565b908782036020890152610269565b940152565b5092939092916000906113c982610eeb565b6001600160a01b03166001600160a01b03851614156113e790610ef4565b84516113f283610672565b106113fc90610f40565b805161140783610672565b1061141190610f81565b825161141c83610672565b1061142690610fc4565b429161143483881115611005565b6006906114418583610a17565b61144a906107a2565b1561145490611051565b61145e600361069e565b611467906110b3565b6114729060036110d1565b61147c600361069e565b97600193896114896110e8565b938401526001600160a01b0388166020840152604083018990526060830152608082015260a0810185905282151560c08201526114c78460e0830152565b6114d288600461067f565b906114dc9161134a565b83876114e9876005610a90565b906114f391611354565b6114fc91610a17565b9061150691610d74565b7fa220121dae68feb03eca9f5b9665acae4c4eae049ae4819148b54b48aff0b71e9161153186610672565b9361153b90610a87565b9461154560405190565b9283926115529284611382565b0390a390565b6101c294939291906000610e7c565b61156f610e72565b61157557565b60405163d93c066560e01b8152600490fd5b6101c26002610672565b61159b600261069e565b6115a3611587565b9081906115af565b9190565b146115bf576101ac9060026110d1565b604051633ee5aeb560e01b8152600490fd5b6101c26001610672565b6101ac6115e66115d1565b60026110d1565b906101ac6116a660076115fe6110e8565b9461160f61160b8261069e565b8752565b61163661162660018301546001600160a01b031690565b6001600160a01b03166020880152565b61164c61164560028301610776565b6040880152565b61166261165b60038301610776565b6060880152565b6116786116716004830161069e565b6080880152565b61168e61168760058301610776565b60a0880152565b610c7161169d600683016107a2565b151560c0880152565b60e0840152565b6101c2906115ed565b156116bd57565b60405162461bcd60e51b815260206004820152601a60248201527f436572746966696361746520646f6573206e6f742065786973740000000000006044820152606490fd5b61171961171e91611711600090565b50600461067f565b6116ad565b9061173e61172a835190565b6117376115ab6000610672565b14156116b6565b60c082015115159061175a60208401516001600160a01b031690565b9260408101519260608201519260a0611774608085015190565b93015191959493929190565b90151581526040810192916101ac9160200152565b6117a361171982600461067f565b6117ae61172a825190565b60c001513390151591426117eb6117e57f701a047df369ee10e7cd6431b27b75996d2084160a65aee60285d46f066ed19793610672565b93610a87565b936118016117f860405190565b92839283611780565b0390a3565b90611821611815610bb4845490565b92600052602060002090565b9060005b8181106118325750505090565b90919261185661184f6001926118478761069e565b815260200190565b9460010190565b929101611825565b906101c291611806565b906101ac6107909261187960405190565b9384809261185e565b6101c290611868565b6118a26101c29161189a606090565b506005610a90565b611882565b6118af6110e8565b906000825260208080808080808089016000815201606081520160608152016000815201606081520160008152016000905250565b6101c26118a7565b6117196101c2916118fb6118e4565b50600461191061172a6000610c71858561067f565b61067f565b6101ac90611930600080516020611b87833981519152610ca4565b611981565b1561193c57565b60405162461bcd60e51b815260206004820152601b60248201527f436572746966696361746520616c7265616479207265766f6b656400000000006044820152606490fd5b6119c26119926101c283600461067f565b600661199d8261069e565b916119b06000936117376115ab86610672565b01610db86119bd826107a2565b611935565b3342916118016119f56117e57f1adbf4393900ce3a2332405b86649270c35d1316887336d83190dcbae6a423b993610672565b9361035c60405190565b6101ac90611915565b6101c291610c39565b6101c2600361069e565b611a32600080516020611b87833981519152610ca4565b6101ac6101ac611aa6565b6101ac611a1b565b611a4d611567565b6101ac611a5b600180610d74565b33611aa17f62e78cea01bee320cd4e420270b5ea74000d11b0c9f74754ebdbfc544b05a25891611a8a60405190565b918291826001600160a01b03909116815260200190565b0390a1565b6101ac611a45565b611ac5600080516020611b87833981519152610ca4565b6101ac6101ac611b1e565b6101ac611aae565b611ae0611b26565b6101ac611aef60006001610d74565b33611aa17f5db9ee0a495bf2e6ff9c91a7834c1ba4fdd244a5e8aa4e537bd38aeae4b073aa91611a8a60405190565b6101ac611ad8565b611b31610cda610e72565b611b3757565b604051638dfc202b60e01b8152600490fd5b6101c290637965db0b60e01b6001600160e01b0319821614908115611b6c575090565b6001600160e01b0319166301ffc9a760e01b1490506101c256fea49807205ce4d355092ef5a8a18f56e8913cf4a201fbe287825b095693c21775a2646970667358221220f79e9919cab350587a1de3f1b17627dcc547c5d1e546d61c6d87f7ad48beeef064736f6c63430008140033","opcodes":"PUSH1 0x80 PUSH1 0x40 MSTORE CALLVALUE PUSH3 0x26 JUMPI PUSH3 0x14 PUSH3 0x4A JUMP JUMPDEST PUSH1 0x40 MLOAD PUSH2 0x1BDC PUSH3 0x26D DUP3 CODECOPY PUSH2 0x1BDC SWAP1 RETURN JUMPDEST PUSH1 0x0 DUP1 REVERT JUMPDEST PUSH3 0x3B PUSH3 0x3B PUSH3 0x3B SWAP3 SWAP1 JUMP JUMPDEST SWAP1 JUMP JUMPDEST PUSH3 0x3B PUSH1 0x0 PUSH3 0x2B JUMP JUMPDEST PUSH3 0x54 PUSH3 0x103 JUMP JUMPDEST PUSH3 0xC4 PUSH3 0x62 PUSH3 0x3E JUMP JUMPDEST PUSH3 0x6F CALLER DUP1 SWAP3 PUSH3 0x1A4 JUMP JUMPDEST POP PUSH3 0x9C DUP2 PUSH32 0xA49807205CE4D355092EF5A8A18F56E8913CF4A201FBE287825B095693C21775 PUSH3 0x1A4 JUMP JUMPDEST POP PUSH32 0x9F2DF0FED2C77648DE5860A4CC508CD0818C85B8B8A1AB4CEEEF8D981C8956A6 PUSH3 0x1A4 JUMP JUMPDEST POP JUMP JUMPDEST PUSH3 0x3B PUSH1 0x1 PUSH3 0x2B JUMP JUMPDEST SWAP1 PUSH1 0x0 NOT SWAP1 JUMPDEST SWAP2 DUP2 NOT AND SWAP2 AND OR SWAP1 JUMP JUMPDEST SWAP1 PUSH3 0xF7 PUSH3 0x3B PUSH3 0xFF SWAP3 PUSH3 0x2B JUMP JUMPDEST DUP3 SLOAD PUSH3 0xD3 JUMP JUMPDEST SWAP1 SSTORE JUMP JUMPDEST PUSH3 0x119 PUSH3 0x111 PUSH3 0xC7 JUMP JUMPDEST PUSH1 0x2 PUSH3 0xE3 JUMP JUMPDEST JUMP JUMPDEST SWAP1 PUSH3 0x127 SWAP1 PUSH3 0x3B JUMP JUMPDEST PUSH1 0x0 MSTORE PUSH1 0x20 MSTORE PUSH1 0x40 PUSH1 0x0 KECCAK256 SWAP1 JUMP JUMPDEST PUSH3 0x3B SWAP1 PUSH3 0x14B SWAP1 PUSH1 0x1 PUSH1 0x1 PUSH1 0xA0 SHL SUB AND DUP3 JUMP JUMPDEST PUSH1 0x1 PUSH1 0x1 PUSH1 0xA0 SHL SUB AND SWAP1 JUMP JUMPDEST PUSH3 0x3B SWAP1 PUSH3 0x135 JUMP JUMPDEST PUSH3 0x3B SWAP1 PUSH3 0x157 JUMP JUMPDEST SWAP1 PUSH3 0x127 SWAP1 PUSH3 0x162 JUMP JUMPDEST SWAP1 PUSH1 0xFF SWAP1 PUSH3 0xD9 JUMP JUMPDEST ISZERO ISZERO SWAP1 JUMP JUMPDEST SWAP1 PUSH3 0x19C PUSH3 0x3B PUSH3 0xFF SWAP3 PUSH3 0x183 JUMP JUMPDEST DUP3 SLOAD PUSH3 0x179 JUMP JUMPDEST PUSH3 0x1B8 PUSH3 0x1B4 DUP4 DUP4 PUSH3 0x24E JUMP JUMPDEST ISZERO SWAP1 JUMP JUMPDEST ISZERO PUSH3 0x235 JUMPI PUSH1 0x1 SWAP2 PUSH3 0x1E6 DUP4 PUSH3 0x1E0 DUP4 PUSH1 0x0 PUSH3 0x1D9 DUP8 DUP3 PUSH3 0x11B JUMP JUMPDEST ADD PUSH3 0x16D JUMP JUMPDEST PUSH3 0x188 JUMP JUMPDEST CALLER SWAP1 PUSH3 0x223 PUSH3 0x21C PUSH3 0x21C PUSH32 0x2F8788117E7EFF1D82E926EC794901D17C78024A50270940304540A733656F0D SWAP6 PUSH3 0x3B JUMP JUMPDEST SWAP3 PUSH3 0x162 JUMP JUMPDEST SWAP3 PUSH3 0x22E PUSH1 0x40 MLOAD SWAP1 JUMP JUMPDEST PUSH1 0x0 SWAP1 LOG4 SWAP1 JUMP JUMPDEST POP POP PUSH1 0x0 SWAP1 JUMP JUMPDEST PUSH1 0xFF AND SWAP1 JUMP JUMPDEST PUSH3 0x3B SWAP1 SLOAD PUSH3 0x23C JUMP JUMPDEST PUSH3 0x3B SWAP2 PUSH3 0x266 SWAP2 PUSH3 0x1D9 PUSH1 0x0 SWAP2 DUP3 PUSH3 0x11B JUMP JUMPDEST PUSH3 0x242 JUMP INVALID PUSH1 0x80 PUSH1 0x40 MSTORE PUSH1 0x4 CALLDATASIZE LT ISZERO PUSH2 0x12 JUMPI PUSH1 0x0 DUP1 REVERT JUMPDEST PUSH1 0x0 CALLDATALOAD PUSH1 0xE0 SHR DUP1 PUSH4 0x1FFC9A7 EQ PUSH2 0x182 JUMPI DUP1 PUSH4 0x6F5497E EQ PUSH2 0x17D JUMPI DUP1 PUSH4 0x1692A942 EQ PUSH2 0x178 JUMPI DUP1 PUSH4 0x248A9CA3 EQ PUSH2 0x173 JUMPI DUP1 PUSH4 0x2F2FF15D EQ PUSH2 0x16E JUMPI DUP1 PUSH4 0x36568ABE EQ PUSH2 0x169 JUMPI DUP1 PUSH4 0x3F4BA83A EQ PUSH2 0x164 JUMPI DUP1 PUSH4 0x51640FEE EQ PUSH2 0x15F JUMPI DUP1 PUSH4 0x542D2A97 EQ PUSH2 0x15A JUMPI DUP1 PUSH4 0x55FA81E6 EQ PUSH2 0x155 JUMPI DUP1 PUSH4 0x596B772F EQ PUSH2 0x150 JUMPI DUP1 PUSH4 0x5C975ABB EQ PUSH2 0x14B JUMPI DUP1 PUSH4 0x663B3E22 EQ PUSH2 0x146 JUMPI DUP1 PUSH4 0x75B238FC EQ PUSH2 0x141 JUMPI DUP1 PUSH4 0x8456CB59 EQ PUSH2 0x13C JUMPI DUP1 PUSH4 0x91D14854 EQ PUSH2 0x137 JUMPI DUP1 PUSH4 0xA217FDDF EQ PUSH2 0x132 JUMPI DUP1 PUSH4 0xAC4AB3FB EQ PUSH2 0x12D JUMPI DUP1 PUSH4 0xBD1F5F31 EQ PUSH2 0x128 JUMPI DUP1 PUSH4 0xC3934F0E EQ PUSH2 0x123 JUMPI DUP1 PUSH4 0xD5391393 EQ PUSH2 0x11E JUMPI DUP1 PUSH4 0xD547741F EQ PUSH2 0x119 JUMPI PUSH4 0xEBC63BC0 SUB PUSH2 0x187 JUMPI PUSH2 0xC0C JUMP JUMPDEST PUSH2 0xB78 JUMP JUMPDEST PUSH2 0xB3F JUMP JUMPDEST PUSH2 0xB23 JUMP JUMPDEST PUSH2 0xA4F JUMP JUMPDEST PUSH2 0x984 JUMP JUMPDEST PUSH2 0x946 JUMP JUMPDEST PUSH2 0x918 JUMP JUMPDEST PUSH2 0x900 JUMP JUMPDEST PUSH2 0x8D9 JUMP JUMPDEST PUSH2 0x8A2 JUMP JUMPDEST PUSH2 0x657 JUMP JUMPDEST PUSH2 0x63C JUMP JUMPDEST PUSH2 0x624 JUMP JUMPDEST PUSH2 0x605 JUMP JUMPDEST PUSH2 0x494 JUMP JUMPDEST PUSH2 0x3E5 JUMP JUMPDEST PUSH2 0x3C1 JUMP JUMPDEST PUSH2 0x3A8 JUMP JUMPDEST PUSH2 0x33D JUMP JUMPDEST PUSH2 0x309 JUMP JUMPDEST PUSH2 0x21D JUMP JUMPDEST PUSH2 0x1C5 JUMP JUMPDEST PUSH1 0x0 DUP1 REVERT JUMPDEST PUSH1 0x1 PUSH1 0x1 PUSH1 0xE0 SHL SUB NOT DUP2 AND JUMPDEST SUB PUSH2 0x187 JUMPI JUMP JUMPDEST SWAP1 POP CALLDATALOAD SWAP1 PUSH2 0x1AC DUP3 PUSH2 0x18C JUMP JUMPDEST JUMP JUMPDEST SWAP1 PUSH1 0x20 DUP3 DUP3 SUB SLT PUSH2 0x187 JUMPI PUSH2 0x1C2 SWAP2 PUSH2 0x19F JUMP JUMPDEST SWAP1 JUMP JUMPDEST CALLVALUE PUSH2 0x187 JUMPI PUSH2 0x1F2 PUSH2 0x1E0 PUSH2 0x1DB CALLDATASIZE PUSH1 0x4 PUSH2 0x1AE JUMP JUMPDEST PUSH2 0x1B49 JUMP JUMPDEST PUSH1 0x40 MLOAD SWAP2 DUP3 SWAP2 DUP3 SWAP1 ISZERO ISZERO DUP2 MSTORE PUSH1 0x20 ADD SWAP1 JUMP JUMPDEST SUB SWAP1 RETURN JUMPDEST DUP1 PUSH2 0x198 JUMP JUMPDEST SWAP1 POP CALLDATALOAD SWAP1 PUSH2 0x1AC DUP3 PUSH2 0x1F6 JUMP JUMPDEST SWAP1 PUSH1 0x20 DUP3 DUP3 SUB SLT PUSH2 0x187 JUMPI PUSH2 0x1C2 SWAP2 PUSH2 0x1FC JUMP JUMPDEST CALLVALUE PUSH2 0x187 JUMPI PUSH2 0x235 PUSH2 0x230 CALLDATASIZE PUSH1 0x4 PUSH2 0x209 JUMP JUMPDEST PUSH2 0x19FF JUMP JUMPDEST PUSH1 0x40 MLOAD STOP JUMPDEST PUSH1 0x1 PUSH1 0x1 PUSH1 0xA0 SHL SUB AND SWAP1 JUMP JUMPDEST PUSH1 0x0 JUMPDEST DUP4 DUP2 LT PUSH2 0x259 JUMPI POP POP PUSH1 0x0 SWAP2 ADD MSTORE JUMP JUMPDEST DUP2 DUP2 ADD MLOAD DUP4 DUP3 ADD MSTORE PUSH1 0x20 ADD PUSH2 0x249 JUMP JUMPDEST PUSH2 0x28A PUSH2 0x293 PUSH1 0x20 SWAP4 PUSH2 0x29D SWAP4 PUSH2 0x27E DUP2 MLOAD SWAP1 JUMP JUMPDEST DUP1 DUP4 MSTORE SWAP4 DUP5 SWAP3 PUSH1 0x20 ADD SWAP1 JUMP JUMPDEST SWAP6 DUP7 SWAP2 ADD PUSH2 0x246 JUMP JUMPDEST PUSH1 0x1F ADD PUSH1 0x1F NOT AND SWAP1 JUMP JUMPDEST ADD SWAP1 JUMP JUMPDEST SWAP3 SWAP4 PUSH2 0x2E6 PUSH2 0x2F4 SWAP3 PUSH2 0x1C2 SWAP9 SWAP7 PUSH2 0x2D9 PUSH2 0x2FC SWAP7 PUSH2 0x2C9 PUSH1 0xC0 DUP11 ADD SWAP5 PUSH1 0x0 DUP12 ADD SWAP1 ISZERO ISZERO SWAP1 MSTORE JUMP JUMPDEST PUSH1 0x1 PUSH1 0x1 PUSH1 0xA0 SHL SUB AND PUSH1 0x20 DUP10 ADD MSTORE JUMP JUMPDEST DUP7 DUP3 SUB PUSH1 0x40 DUP9 ADD MSTORE PUSH2 0x269 JUMP JUMPDEST SWAP1 DUP5 DUP3 SUB PUSH1 0x60 DUP7 ADD MSTORE PUSH2 0x269 JUMP JUMPDEST SWAP4 PUSH1 0x80 DUP4 ADD MSTORE JUMP JUMPDEST PUSH1 0xA0 DUP2 DUP5 SUB SWAP2 ADD MSTORE PUSH2 0x269 JUMP JUMPDEST CALLVALUE PUSH2 0x187 JUMPI PUSH2 0x1F2 PUSH2 0x324 PUSH2 0x31F CALLDATASIZE PUSH1 0x4 PUSH2 0x209 JUMP JUMPDEST PUSH2 0x1702 JUMP JUMPDEST SWAP3 PUSH2 0x334 SWAP7 SWAP5 SWAP7 SWAP3 SWAP2 SWAP3 PUSH1 0x40 MLOAD SWAP1 JUMP JUMPDEST SWAP7 DUP8 SWAP7 DUP8 PUSH2 0x2A1 JUMP JUMPDEST CALLVALUE PUSH2 0x187 JUMPI PUSH2 0x1F2 PUSH2 0x358 PUSH2 0x353 CALLDATASIZE PUSH1 0x4 PUSH2 0x209 JUMP JUMPDEST PUSH2 0xC58 JUMP JUMPDEST PUSH1 0x40 MLOAD JUMPDEST SWAP2 DUP3 SWAP2 DUP3 SWAP1 DUP2 MSTORE PUSH1 0x20 ADD SWAP1 JUMP JUMPDEST PUSH1 0x1 PUSH1 0x1 PUSH1 0xA0 SHL SUB DUP2 AND PUSH2 0x198 JUMP JUMPDEST SWAP1 POP CALLDATALOAD SWAP1 PUSH2 0x1AC DUP3 PUSH2 0x369 JUMP JUMPDEST SWAP2 SWAP1 PUSH1 0x40 DUP4 DUP3 SUB SLT PUSH2 0x187 JUMPI PUSH2 0x1C2 SWAP1 PUSH2 0x39F DUP2 DUP6 PUSH2 0x1FC JUMP JUMPDEST SWAP4 PUSH1 0x20 ADD PUSH2 0x378 JUMP JUMPDEST CALLVALUE PUSH2 0x187 JUMPI PUSH2 0x235 PUSH2 0x3BB CALLDATASIZE PUSH1 0x4 PUSH2 0x385 JUMP JUMPDEST SWAP1 PUSH2 0xC9A JUMP JUMPDEST CALLVALUE PUSH2 0x187 JUMPI PUSH2 0x235 PUSH2 0x3D4 CALLDATASIZE PUSH1 0x4 PUSH2 0x385 JUMP JUMPDEST SWAP1 PUSH2 0xD31 JUMP JUMPDEST PUSH1 0x0 SWAP2 SUB SLT PUSH2 0x187 JUMPI JUMP JUMPDEST CALLVALUE PUSH2 0x187 JUMPI PUSH2 0x3F5 CALLDATASIZE PUSH1 0x4 PUSH2 0x3DA JUMP JUMPDEST PUSH2 0x235 PUSH2 0x1AD0 JUMP JUMPDEST DUP1 MLOAD DUP3 MSTORE PUSH1 0x20 DUP1 DUP3 ADD MLOAD PUSH1 0x1 PUSH1 0x1 PUSH1 0xA0 SHL SUB AND SWAP1 DUP4 ADD MSTORE SWAP1 PUSH2 0x1C2 SWAP1 PUSH1 0xE0 DUP1 PUSH2 0x46F PUSH2 0x44E PUSH2 0x43C PUSH2 0x100 DUP7 ADD PUSH1 0x40 DUP10 ADD MLOAD DUP8 DUP3 SUB PUSH1 0x40 DUP10 ADD MSTORE PUSH2 0x269 JUMP JUMPDEST PUSH1 0x60 DUP9 ADD MLOAD DUP7 DUP3 SUB PUSH1 0x60 DUP9 ADD MSTORE PUSH2 0x269 JUMP JUMPDEST PUSH2 0x45D PUSH1 0x80 DUP9 ADD MLOAD PUSH1 0x80 DUP8 ADD MSTORE JUMP JUMPDEST PUSH1 0xA0 DUP8 ADD MLOAD DUP6 DUP3 SUB PUSH1 0xA0 DUP8 ADD MSTORE PUSH2 0x269 JUMP JUMPDEST PUSH1 0xC0 DUP1 DUP8 ADD MLOAD ISZERO ISZERO SWAP1 DUP6 ADD MSTORE SWAP5 ADD MLOAD SWAP2 ADD MSTORE JUMP JUMPDEST PUSH1 0x20 DUP1 DUP3 MSTORE PUSH2 0x1C2 SWAP3 SWAP2 ADD SWAP1 PUSH2 0x3FD JUMP JUMPDEST CALLVALUE PUSH2 0x187 JUMPI PUSH2 0x1F2 PUSH2 0x4AF PUSH2 0x4AA CALLDATASIZE PUSH1 0x4 PUSH2 0x209 JUMP JUMPDEST PUSH2 0x18EC JUMP JUMPDEST PUSH1 0x40 MLOAD SWAP2 DUP3 SWAP2 DUP3 PUSH2 0x483 JUMP JUMPDEST PUSH4 0x4E487B71 PUSH1 0xE0 SHL PUSH1 0x0 MSTORE PUSH1 0x41 PUSH1 0x4 MSTORE PUSH1 0x24 PUSH1 0x0 REVERT JUMPDEST SWAP1 PUSH1 0x1F ADD PUSH1 0x1F NOT AND DUP2 ADD SWAP1 DUP2 LT PUSH8 0xFFFFFFFFFFFFFFFF DUP3 GT OR PUSH2 0x4F3 JUMPI PUSH1 0x40 MSTORE JUMP JUMPDEST PUSH2 0x4BB JUMP JUMPDEST SWAP1 PUSH2 0x1AC PUSH2 0x505 PUSH1 0x40 MLOAD SWAP1 JUMP JUMPDEST SWAP3 DUP4 PUSH2 0x4D1 JUMP JUMPDEST PUSH8 0xFFFFFFFFFFFFFFFF DUP2 GT PUSH2 0x4F3 JUMPI PUSH1 0x20 SWAP1 PUSH1 0x1F ADD PUSH1 0x1F NOT AND ADD SWAP1 JUMP JUMPDEST SWAP1 DUP3 PUSH1 0x0 SWAP4 SWAP3 DUP3 CALLDATACOPY ADD MSTORE JUMP JUMPDEST SWAP1 SWAP3 SWAP2 SWAP3 PUSH2 0x54A PUSH2 0x545 DUP3 PUSH2 0x50C JUMP JUMPDEST PUSH2 0x4F8 JUMP JUMPDEST SWAP4 DUP2 DUP6 MSTORE PUSH1 0x20 DUP6 ADD SWAP1 DUP3 DUP5 ADD GT PUSH2 0x187 JUMPI PUSH2 0x1AC SWAP3 PUSH2 0x529 JUMP JUMPDEST SWAP1 DUP1 PUSH1 0x1F DUP4 ADD SLT ISZERO PUSH2 0x187 JUMPI DUP2 PUSH1 0x20 PUSH2 0x1C2 SWAP4 CALLDATALOAD SWAP2 ADD PUSH2 0x535 JUMP JUMPDEST SWAP2 SWAP1 SWAP2 PUSH1 0xA0 DUP2 DUP5 SUB SLT PUSH2 0x187 JUMPI PUSH2 0x596 DUP4 DUP3 PUSH2 0x378 JUMP JUMPDEST SWAP3 PUSH1 0x20 DUP3 ADD CALLDATALOAD PUSH8 0xFFFFFFFFFFFFFFFF DUP2 GT PUSH2 0x187 JUMPI DUP2 PUSH2 0x5B7 SWAP2 DUP5 ADD PUSH2 0x564 JUMP JUMPDEST SWAP3 PUSH1 0x40 DUP4 ADD CALLDATALOAD PUSH8 0xFFFFFFFFFFFFFFFF DUP2 GT PUSH2 0x187 JUMPI DUP3 PUSH2 0x5D8 SWAP2 DUP6 ADD PUSH2 0x564 JUMP JUMPDEST SWAP3 PUSH2 0x5E6 DUP4 PUSH1 0x60 DUP4 ADD PUSH2 0x1FC JUMP JUMPDEST SWAP3 PUSH1 0x80 DUP3 ADD CALLDATALOAD PUSH8 0xFFFFFFFFFFFFFFFF DUP2 GT PUSH2 0x187 JUMPI PUSH2 0x1C2 SWAP3 ADD PUSH2 0x564 JUMP JUMPDEST CALLVALUE PUSH2 0x187 JUMPI PUSH2 0x1F2 PUSH2 0x358 PUSH2 0x61B CALLDATASIZE PUSH1 0x4 PUSH2 0x57F JUMP JUMPDEST SWAP4 SWAP3 SWAP1 SWAP3 PUSH2 0x1558 JUMP JUMPDEST CALLVALUE PUSH2 0x187 JUMPI PUSH2 0x235 PUSH2 0x637 CALLDATASIZE PUSH1 0x4 PUSH2 0x209 JUMP JUMPDEST PUSH2 0x1795 JUMP JUMPDEST CALLVALUE PUSH2 0x187 JUMPI PUSH2 0x64C CALLDATASIZE PUSH1 0x4 PUSH2 0x3DA JUMP JUMPDEST PUSH2 0x1F2 PUSH2 0x358 PUSH2 0x1A11 JUMP JUMPDEST CALLVALUE PUSH2 0x187 JUMPI PUSH2 0x667 CALLDATASIZE PUSH1 0x4 PUSH2 0x3DA JUMP JUMPDEST PUSH2 0x1F2 PUSH2 0x1E0 PUSH2 0xE72 JUMP JUMPDEST PUSH2 0x1C2 PUSH2 0x1C2 PUSH2 0x1C2 SWAP3 SWAP1 JUMP JUMPDEST SWAP1 PUSH2 0x689 SWAP1 PUSH2 0x672 JUMP JUMPDEST PUSH1 0x0 MSTORE PUSH1 0x20 MSTORE PUSH1 0x40 PUSH1 0x0 KECCAK256 SWAP1 JUMP JUMPDEST PUSH2 0x1C2 SWAP1 DUP2 JUMP JUMPDEST PUSH2 0x1C2 SWAP1 SLOAD PUSH2 0x697 JUMP JUMPDEST PUSH4 0x4E487B71 PUSH1 0xE0 SHL PUSH1 0x0 MSTORE PUSH1 0x22 PUSH1 0x4 MSTORE PUSH1 0x24 PUSH1 0x0 REVERT JUMPDEST SWAP1 PUSH1 0x1 PUSH1 0x2 DUP4 DIV SWAP3 AND DUP1 ISZERO PUSH2 0x6DE JUMPI JUMPDEST PUSH1 0x20 DUP4 LT EQ PUSH2 0x6D9 JUMPI JUMP JUMPDEST PUSH2 0x6A8 JUMP JUMPDEST SWAP2 PUSH1 0x7F AND SWAP2 PUSH2 0x6CE JUMP JUMPDEST DUP1 SLOAD PUSH1 0x0 SWAP4 SWAP3 SWAP2 PUSH2 0x705 PUSH2 0x6FB DUP4 PUSH2 0x6BE JUMP JUMPDEST DUP1 DUP6 MSTORE SWAP4 PUSH1 0x20 ADD SWAP1 JUMP JUMPDEST SWAP2 PUSH1 0x1 DUP2 AND SWAP1 DUP2 ISZERO PUSH2 0x757 JUMPI POP PUSH1 0x1 EQ PUSH2 0x71E JUMPI POP POP POP JUMP JUMPDEST PUSH2 0x731 SWAP2 SWAP3 SWAP4 SWAP5 POP PUSH1 0x0 MSTORE PUSH1 0x20 PUSH1 0x0 KECCAK256 SWAP1 JUMP JUMPDEST SWAP2 PUSH1 0x0 SWAP3 JUMPDEST DUP2 DUP5 LT PUSH2 0x743 JUMPI POP POP ADD SWAP1 JUMP JUMPDEST DUP1 SLOAD DUP5 DUP5 ADD MSTORE PUSH1 0x20 SWAP1 SWAP4 ADD SWAP3 PUSH1 0x1 ADD PUSH2 0x736 JUMP JUMPDEST SWAP3 SWAP5 SWAP6 POP POP POP PUSH1 0xFF NOT AND DUP3 MSTORE ISZERO ISZERO PUSH1 0x20 MUL ADD SWAP1 JUMP JUMPDEST SWAP1 PUSH2 0x1C2 SWAP2 PUSH2 0x6E8 JUMP JUMPDEST SWAP1 PUSH2 0x1AC PUSH2 0x790 SWAP3 PUSH2 0x787 PUSH1 0x40 MLOAD SWAP1 JUMP JUMPDEST SWAP4 DUP5 DUP1 SWAP3 PUSH2 0x76C JUMP JUMPDEST SUB DUP4 PUSH2 0x4D1 JUMP JUMPDEST PUSH2 0x1C2 SWAP1 JUMPDEST PUSH1 0xFF AND SWAP1 JUMP JUMPDEST PUSH2 0x1C2 SWAP1 SLOAD PUSH2 0x797 JUMP JUMPDEST PUSH2 0x7B7 SWAP1 PUSH1 0x4 PUSH2 0x67F JUMP JUMPDEST SWAP1 PUSH2 0x7C1 DUP3 PUSH2 0x69E JUMP JUMPDEST SWAP2 PUSH2 0x7D6 PUSH1 0x1 DUP3 ADD SLOAD PUSH1 0x1 PUSH1 0x1 PUSH1 0xA0 SHL SUB AND SWAP1 JUMP JUMPDEST SWAP2 PUSH2 0x7E3 PUSH1 0x2 DUP4 ADD PUSH2 0x776 JUMP JUMPDEST SWAP2 PUSH2 0x7F0 PUSH1 0x3 DUP3 ADD PUSH2 0x776 JUMP JUMPDEST SWAP2 PUSH2 0x7FD PUSH1 0x4 DUP4 ADD PUSH2 0x69E JUMP JUMPDEST SWAP2 PUSH2 0x80A PUSH1 0x5 DUP3 ADD PUSH2 0x776 JUMP JUMPDEST SWAP2 PUSH2 0x1C2 PUSH1 0x7 PUSH2 0x81C PUSH1 0x6 DUP6 ADD PUSH2 0x7A2 JUMP JUMPDEST SWAP4 ADD PUSH2 0x69E JUMP JUMPDEST SWAP4 SWAP6 PUSH2 0x887 PUSH2 0x87F PUSH2 0x1AC SWAP10 SWAP12 SWAP11 SWAP9 PUSH2 0x871 DUP9 PUSH2 0x89E SWAP9 PUSH2 0x864 PUSH2 0x894 SWAP10 PUSH2 0x854 PUSH1 0xE0 SWAP15 SWAP11 PUSH1 0x0 PUSH2 0x100 DUP8 ADD SWAP7 ADD MSTORE JUMP JUMPDEST PUSH1 0x1 PUSH1 0x1 PUSH1 0xA0 SHL SUB AND PUSH1 0x20 DUP14 ADD MSTORE JUMP JUMPDEST DUP11 DUP3 SUB PUSH1 0x40 DUP13 ADD MSTORE PUSH2 0x269 JUMP JUMPDEST SWAP1 DUP9 DUP3 SUB PUSH1 0x60 DUP11 ADD MSTORE PUSH2 0x269 JUMP JUMPDEST SWAP3 PUSH1 0x80 DUP8 ADD MSTORE JUMP JUMPDEST DUP5 DUP3 SUB PUSH1 0xA0 DUP7 ADD MSTORE PUSH2 0x269 JUMP JUMPDEST SWAP7 ISZERO ISZERO PUSH1 0xC0 DUP4 ADD MSTORE JUMP JUMPDEST ADD MSTORE JUMP JUMPDEST CALLVALUE PUSH2 0x187 JUMPI PUSH2 0x1F2 PUSH2 0x8BD PUSH2 0x8B8 CALLDATASIZE PUSH1 0x4 PUSH2 0x209 JUMP JUMPDEST PUSH2 0x7AC JUMP JUMPDEST SWAP5 PUSH2 0x8D0 SWAP9 SWAP7 SWAP9 SWAP5 SWAP2 SWAP5 SWAP4 SWAP3 SWAP4 PUSH1 0x40 MLOAD SWAP1 JUMP JUMPDEST SWAP9 DUP10 SWAP9 DUP10 PUSH2 0x823 JUMP JUMPDEST CALLVALUE PUSH2 0x187 JUMPI PUSH2 0x8E9 CALLDATASIZE PUSH1 0x4 PUSH2 0x3DA JUMP JUMPDEST PUSH2 0x1F2 PUSH1 0x0 DUP1 MLOAD PUSH1 0x20 PUSH2 0x1B87 DUP4 CODECOPY DUP2 MLOAD SWAP2 MSTORE PUSH2 0x358 JUMP JUMPDEST CALLVALUE PUSH2 0x187 JUMPI PUSH2 0x910 CALLDATASIZE PUSH1 0x4 PUSH2 0x3DA JUMP JUMPDEST PUSH2 0x235 PUSH2 0x1A3D JUMP JUMPDEST CALLVALUE PUSH2 0x187 JUMPI PUSH2 0x1F2 PUSH2 0x1E0 PUSH2 0x92E CALLDATASIZE PUSH1 0x4 PUSH2 0x385 JUMP JUMPDEST SWAP1 PUSH2 0xC39 JUMP JUMPDEST PUSH2 0x1C2 PUSH1 0x0 PUSH2 0x672 JUMP JUMPDEST PUSH2 0x1C2 PUSH2 0x934 JUMP JUMPDEST CALLVALUE PUSH2 0x187 JUMPI PUSH2 0x956 CALLDATASIZE PUSH1 0x4 PUSH2 0x3DA JUMP JUMPDEST PUSH2 0x1F2 PUSH2 0x358 PUSH2 0x93E JUMP JUMPDEST SWAP2 SWAP1 PUSH1 0x40 DUP4 DUP3 SUB SLT PUSH2 0x187 JUMPI PUSH2 0x1C2 SWAP1 PUSH2 0x97B DUP2 DUP6 PUSH2 0x378 JUMP JUMPDEST SWAP4 PUSH1 0x20 ADD PUSH2 0x1FC JUMP JUMPDEST CALLVALUE PUSH2 0x187 JUMPI PUSH2 0x1F2 PUSH2 0x1E0 PUSH2 0x99A CALLDATASIZE PUSH1 0x4 PUSH2 0x961 JUMP JUMPDEST SWAP1 PUSH2 0x1A08 JUMP JUMPDEST SWAP1 PUSH1 0x20 DUP3 DUP3 SUB SLT PUSH2 0x187 JUMPI DUP2 CALLDATALOAD PUSH8 0xFFFFFFFFFFFFFFFF DUP2 GT PUSH2 0x187 JUMPI PUSH2 0x1C2 SWAP3 ADD PUSH2 0x564 JUMP JUMPDEST PUSH2 0x29D PUSH2 0x9DE SWAP3 PUSH1 0x20 SWAP3 PUSH2 0x9D8 DUP2 MLOAD SWAP1 JUMP JUMPDEST SWAP5 DUP6 SWAP3 SWAP1 JUMP JUMPDEST SWAP4 DUP5 SWAP2 ADD PUSH2 0x246 JUMP JUMPDEST PUSH2 0x9F7 PUSH2 0x29D SWAP2 PUSH1 0x20 SWAP5 SWAP4 PUSH2 0x9C6 JUMP JUMPDEST SWAP2 DUP3 MSTORE JUMP JUMPDEST PUSH2 0xA11 PUSH2 0xA08 PUSH1 0x40 MLOAD SWAP1 JUMP JUMPDEST SWAP3 DUP4 SWAP3 DUP4 PUSH2 0x9E7 JUMP JUMPDEST SUB SWAP1 KECCAK256 SWAP1 JUMP JUMPDEST PUSH2 0x1C2 SWAP2 PUSH2 0x9FC JUMP JUMPDEST PUSH2 0x1C2 SWAP2 PUSH1 0x8 MUL SHR PUSH2 0x79C JUMP JUMPDEST SWAP1 PUSH2 0x1C2 SWAP2 SLOAD PUSH2 0xA20 JUMP JUMPDEST PUSH2 0x1C2 SWAP1 PUSH2 0xA4A PUSH1 0x6 SWAP2 PUSH1 0x0 SWAP3 PUSH2 0xA17 JUMP JUMPDEST PUSH2 0xA2D JUMP JUMPDEST CALLVALUE PUSH2 0x187 JUMPI PUSH2 0x1F2 PUSH2 0x1E0 PUSH2 0xA65 CALLDATASIZE PUSH1 0x4 PUSH2 0x9A0 JUMP JUMPDEST PUSH2 0xA38 JUMP JUMPDEST PUSH2 0x1C2 SWAP1 PUSH2 0x23A SWAP1 PUSH1 0x1 PUSH1 0x1 PUSH1 0xA0 SHL SUB AND DUP3 JUMP JUMPDEST PUSH2 0x1C2 SWAP1 PUSH2 0xA6A JUMP JUMPDEST PUSH2 0x1C2 SWAP1 PUSH2 0xA7E JUMP JUMPDEST SWAP1 PUSH2 0x689 SWAP1 PUSH2 0xA87 JUMP JUMPDEST PUSH4 0x4E487B71 PUSH1 0xE0 SHL PUSH1 0x0 MSTORE PUSH1 0x32 PUSH1 0x4 MSTORE PUSH1 0x24 PUSH1 0x0 REVERT JUMPDEST DUP1 SLOAD DUP3 LT ISZERO PUSH2 0xAD3 JUMPI PUSH2 0xACA PUSH1 0x1 SWAP2 PUSH1 0x0 MSTORE PUSH1 0x20 PUSH1 0x0 KECCAK256 SWAP1 JUMP JUMPDEST SWAP2 MUL ADD SWAP1 PUSH1 0x0 SWAP1 JUMP JUMPDEST PUSH2 0xA9A JUMP JUMPDEST PUSH2 0x1C2 SWAP2 PUSH1 0x8 MUL SHR DUP2 JUMP JUMPDEST SWAP1 PUSH2 0x1C2 SWAP2 SLOAD PUSH2 0xAD8 JUMP JUMPDEST PUSH2 0xAFC PUSH1 0x5 SWAP2 PUSH1 0x0 SWAP3 PUSH2 0xA90 JUMP JUMPDEST SWAP1 PUSH2 0xB05 DUP3 SLOAD SWAP1 JUMP JUMPDEST DUP4 LT ISZERO PUSH2 0xB20 JUMPI POP PUSH2 0x1C2 SWAP2 PUSH2 0xB1A SWAP2 PUSH2 0xAB0 JUMP JUMPDEST SWAP1 PUSH2 0xAE3 JUMP JUMPDEST DUP1 REVERT JUMPDEST CALLVALUE PUSH2 0x187 JUMPI PUSH2 0x1F2 PUSH2 0x358 PUSH2 0xB39 CALLDATASIZE PUSH1 0x4 PUSH2 0x961 JUMP JUMPDEST SWAP1 PUSH2 0xAEE JUMP JUMPDEST CALLVALUE PUSH2 0x187 JUMPI PUSH2 0xB4F CALLDATASIZE PUSH1 0x4 PUSH2 0x3DA JUMP JUMPDEST PUSH2 0x1F2 PUSH32 0x9F2DF0FED2C77648DE5860A4CC508CD0818C85B8B8A1AB4CEEEF8D981C8956A6 PUSH2 0x358 JUMP JUMPDEST CALLVALUE PUSH2 0x187 JUMPI PUSH2 0x235 PUSH2 0xB8B CALLDATASIZE PUSH1 0x4 PUSH2 0x385 JUMP JUMPDEST SWAP1 PUSH2 0xD27 JUMP JUMPDEST SWAP1 PUSH1 0x20 DUP3 DUP3 SUB SLT PUSH2 0x187 JUMPI PUSH2 0x1C2 SWAP2 PUSH2 0x378 JUMP JUMPDEST SWAP1 PUSH2 0xBC5 PUSH2 0xBBE PUSH2 0xBB4 DUP5 MLOAD SWAP1 JUMP JUMPDEST DUP1 DUP5 MSTORE SWAP3 PUSH1 0x20 ADD SWAP1 JUMP JUMPDEST SWAP3 PUSH1 0x20 ADD SWAP1 JUMP JUMPDEST SWAP1 PUSH1 0x0 JUMPDEST DUP2 DUP2 LT PUSH2 0xBD6 JUMPI POP POP POP SWAP1 JUMP JUMPDEST SWAP1 SWAP2 SWAP3 PUSH2 0xBF3 PUSH2 0xBEC PUSH1 0x1 SWAP3 DUP7 MLOAD DUP2 MSTORE PUSH1 0x20 ADD SWAP1 JUMP JUMPDEST SWAP5 PUSH1 0x20 ADD SWAP1 JUMP JUMPDEST SWAP3 SWAP2 ADD PUSH2 0xBC9 JUMP JUMPDEST PUSH1 0x20 DUP1 DUP3 MSTORE PUSH2 0x1C2 SWAP3 SWAP2 ADD SWAP1 PUSH2 0xBA5 JUMP JUMPDEST CALLVALUE PUSH2 0x187 JUMPI PUSH2 0x1F2 PUSH2 0xC27 PUSH2 0xC22 CALLDATASIZE PUSH1 0x4 PUSH2 0xB91 JUMP JUMPDEST PUSH2 0x188B JUMP JUMPDEST PUSH1 0x40 MLOAD SWAP2 DUP3 SWAP2 DUP3 PUSH2 0xBFB JUMP JUMPDEST SWAP1 PUSH2 0x689 JUMP JUMPDEST PUSH2 0x1C2 SWAP2 PUSH2 0xC53 SWAP2 PUSH2 0xC4D PUSH1 0x0 SWAP2 DUP3 PUSH2 0xC33 JUMP JUMPDEST ADD PUSH2 0xA90 JUMP JUMPDEST PUSH2 0x7A2 JUMP JUMPDEST PUSH1 0x1 PUSH2 0xC71 PUSH2 0x1C2 SWAP3 PUSH2 0xC69 PUSH1 0x0 SWAP1 JUMP JUMPDEST POP PUSH1 0x0 PUSH2 0xC33 JUMP JUMPDEST ADD PUSH2 0x69E JUMP JUMPDEST SWAP1 PUSH2 0x1AC SWAP2 PUSH2 0xC8D PUSH2 0xC88 DUP3 PUSH2 0xC58 JUMP JUMPDEST PUSH2 0xCA4 JUMP JUMPDEST SWAP1 PUSH2 0xC97 SWAP2 PUSH2 0xD8F JUMP JUMPDEST POP JUMP JUMPDEST SWAP1 PUSH2 0x1AC SWAP2 PUSH2 0xC77 JUMP JUMPDEST PUSH2 0x1AC SWAP1 CALLER SWAP1 PUSH2 0xCCC JUMP JUMPDEST PUSH1 0x1 PUSH1 0x1 PUSH1 0xA0 SHL SUB SWAP1 SWAP2 AND DUP2 MSTORE PUSH1 0x40 DUP2 ADD SWAP3 SWAP2 PUSH2 0x1AC SWAP2 PUSH1 0x20 ADD MSTORE JUMP JUMPDEST SWAP1 PUSH2 0xCDE PUSH2 0xCDA DUP3 DUP5 PUSH2 0xC39 JUMP JUMPDEST ISZERO SWAP1 JUMP JUMPDEST PUSH2 0xCE6 JUMPI POP POP JUMP JUMPDEST PUSH2 0xD08 PUSH2 0xCF2 PUSH1 0x40 MLOAD SWAP1 JUMP JUMPDEST PUSH4 0xE2517D3F PUSH1 0xE0 SHL DUP2 MSTORE SWAP3 DUP4 SWAP3 PUSH1 0x4 DUP5 ADD PUSH2 0xCAF JUMP JUMPDEST SUB SWAP1 REVERT JUMPDEST SWAP1 PUSH2 0x1AC SWAP2 PUSH2 0xD1D PUSH2 0xC88 DUP3 PUSH2 0xC58 JUMP JUMPDEST SWAP1 PUSH2 0xC97 SWAP2 PUSH2 0xE0B JUMP JUMPDEST SWAP1 PUSH2 0x1AC SWAP2 PUSH2 0xD0C JUMP JUMPDEST SWAP1 PUSH2 0xD3B CALLER PUSH2 0x23A JUMP JUMPDEST PUSH1 0x1 PUSH1 0x1 PUSH1 0xA0 SHL SUB DUP3 AND SUB PUSH2 0xD53 JUMPI PUSH2 0xC97 SWAP2 PUSH2 0xE0B JUMP JUMPDEST PUSH1 0x40 MLOAD PUSH4 0x334BD919 PUSH1 0xE1 SHL DUP2 MSTORE PUSH1 0x4 SWAP1 REVERT JUMPDEST SWAP1 PUSH1 0xFF SWAP1 JUMPDEST SWAP2 DUP2 NOT AND SWAP2 AND OR SWAP1 JUMP JUMPDEST SWAP1 PUSH2 0xD84 PUSH2 0x1C2 PUSH2 0xD8B SWAP3 ISZERO ISZERO SWAP1 JUMP JUMPDEST DUP3 SLOAD PUSH2 0xD65 JUMP JUMPDEST SWAP1 SSTORE JUMP JUMPDEST PUSH2 0xD9C PUSH2 0xCDA DUP4 DUP4 PUSH2 0xC39 JUMP JUMPDEST ISZERO PUSH2 0xE04 JUMPI PUSH1 0x1 SWAP2 PUSH2 0xDBD DUP4 PUSH2 0xDB8 DUP4 PUSH1 0x0 PUSH2 0xC4D DUP8 DUP3 PUSH2 0xC33 JUMP JUMPDEST PUSH2 0xD74 JUMP JUMPDEST CALLER SWAP1 PUSH2 0xDF3 PUSH2 0xDED PUSH2 0xDED PUSH32 0x2F8788117E7EFF1D82E926EC794901D17C78024A50270940304540A733656F0D SWAP6 SWAP1 JUMP JUMPDEST SWAP3 PUSH2 0xA87 JUMP JUMPDEST SWAP3 PUSH2 0xDFD PUSH1 0x40 MLOAD SWAP1 JUMP JUMPDEST PUSH1 0x0 SWAP1 LOG4 SWAP1 JUMP JUMPDEST POP POP PUSH1 0x0 SWAP1 JUMP JUMPDEST SWAP1 PUSH2 0xE16 DUP2 DUP4 PUSH2 0xC39 JUMP JUMPDEST ISZERO PUSH2 0xE04 JUMPI PUSH2 0xE2F PUSH1 0x0 PUSH2 0xDB8 DUP4 DUP3 PUSH2 0xC4D DUP8 DUP3 PUSH2 0xC33 JUMP JUMPDEST CALLER SWAP1 PUSH2 0xE5F PUSH2 0xDED PUSH2 0xDED PUSH32 0xF6391F5C32D9C69D2A47EA670B442974B53935D1EDC7FD64EB21E047A839171B SWAP6 SWAP1 JUMP JUMPDEST SWAP3 PUSH2 0xE69 PUSH1 0x40 MLOAD SWAP1 JUMP JUMPDEST PUSH1 0x0 SWAP1 LOG4 PUSH1 0x1 SWAP1 JUMP JUMPDEST PUSH2 0x1C2 PUSH1 0x1 PUSH2 0x7A2 JUMP JUMPDEST PUSH2 0x1C2 SWAP6 SWAP5 SWAP4 SWAP3 SWAP2 SWAP1 PUSH2 0xEAE PUSH32 0x9F2DF0FED2C77648DE5860A4CC508CD0818C85B8B8A1AB4CEEEF8D981C8956A6 PUSH2 0xCA4 JUMP JUMPDEST SWAP1 PUSH2 0x1C2 SWAP6 SWAP5 SWAP4 SWAP3 SWAP2 PUSH2 0xEBF PUSH2 0x1567 JUMP JUMPDEST SWAP1 PUSH2 0xED5 SWAP6 SWAP5 SWAP4 SWAP3 SWAP2 PUSH2 0xED0 PUSH2 0x1591 JUMP JUMPDEST PUSH2 0x13B7 JUMP JUMPDEST SWAP1 PUSH2 0x1AC PUSH2 0x15DB JUMP JUMPDEST PUSH2 0x23A PUSH2 0x1C2 PUSH2 0x1C2 SWAP3 SWAP1 JUMP JUMPDEST PUSH2 0x1C2 SWAP1 PUSH2 0xEDE JUMP JUMPDEST ISZERO PUSH2 0xEFB JUMPI JUMP JUMPDEST PUSH1 0x40 MLOAD PUSH3 0x461BCD PUSH1 0xE5 SHL DUP2 MSTORE PUSH1 0x20 PUSH1 0x4 DUP3 ADD MSTORE PUSH1 0x17 PUSH1 0x24 DUP3 ADD MSTORE PUSH32 0x496E76616C69642073747564656E742061646472657373000000000000000000 PUSH1 0x44 DUP3 ADD MSTORE PUSH1 0x64 SWAP1 REVERT JUMPDEST ISZERO PUSH2 0xF47 JUMPI JUMP JUMPDEST PUSH1 0x40 MLOAD PUSH3 0x461BCD PUSH1 0xE5 SHL DUP2 MSTORE PUSH1 0x20 PUSH1 0x4 DUP3 ADD MSTORE PUSH1 0x12 PUSH1 0x24 DUP3 ADD MSTORE PUSH18 0x10DBDD5C9CD9481251081C995C5D5A5C9959 PUSH1 0x72 SHL PUSH1 0x44 DUP3 ADD MSTORE PUSH1 0x64 SWAP1 REVERT JUMPDEST ISZERO PUSH2 0xF88 JUMPI JUMP JUMPDEST PUSH1 0x40 MLOAD PUSH3 0x461BCD PUSH1 0xE5 SHL DUP2 MSTORE PUSH1 0x20 PUSH1 0x4 DUP3 ADD MSTORE PUSH1 0x14 PUSH1 0x24 DUP3 ADD MSTORE PUSH20 0x10DBDD5C9CD9481B985B59481C995C5D5A5C9959 PUSH1 0x62 SHL PUSH1 0x44 DUP3 ADD MSTORE PUSH1 0x64 SWAP1 REVERT JUMPDEST ISZERO PUSH2 0xFCB JUMPI JUMP JUMPDEST PUSH1 0x40 MLOAD PUSH3 0x461BCD PUSH1 0xE5 SHL DUP2 MSTORE PUSH1 0x20 PUSH1 0x4 DUP3 ADD MSTORE PUSH1 0x12 PUSH1 0x24 DUP3 ADD MSTORE PUSH18 0x12541194C81A185CDA081C995C5D5A5C9959 PUSH1 0x72 SHL PUSH1 0x44 DUP3 ADD MSTORE PUSH1 0x64 SWAP1 REVERT JUMPDEST ISZERO PUSH2 0x100C JUMPI JUMP JUMPDEST PUSH1 0x40 MLOAD PUSH3 0x461BCD PUSH1 0xE5 SHL DUP2 MSTORE PUSH1 0x20 PUSH1 0x4 DUP3 ADD MSTORE PUSH1 0x17 PUSH1 0x24 DUP3 ADD MSTORE PUSH32 0x496E76616C696420636F6D706C6574696F6E2064617465000000000000000000 PUSH1 0x44 DUP3 ADD MSTORE PUSH1 0x64 SWAP1 REVERT JUMPDEST ISZERO PUSH2 0x1058 JUMPI JUMP JUMPDEST PUSH1 0x40 MLOAD PUSH3 0x461BCD PUSH1 0xE5 SHL DUP2 MSTORE PUSH1 0x20 PUSH1 0x4 DUP3 ADD MSTORE PUSH1 0x1A PUSH1 0x24 DUP3 ADD MSTORE PUSH32 0x436572746966696361746520616C726561647920657869737473000000000000 PUSH1 0x44 DUP3 ADD MSTORE PUSH1 0x64 SWAP1 REVERT JUMPDEST PUSH4 0x4E487B71 PUSH1 0xE0 SHL PUSH1 0x0 MSTORE PUSH1 0x11 PUSH1 0x4 MSTORE PUSH1 0x24 PUSH1 0x0 REVERT JUMPDEST PUSH1 0x0 NOT DUP2 EQ PUSH2 0x10C2 JUMPI PUSH1 0x1 ADD SWAP1 JUMP JUMPDEST PUSH2 0x109D JUMP JUMPDEST SWAP1 PUSH1 0x0 NOT SWAP1 PUSH2 0xD6A JUMP JUMPDEST SWAP1 PUSH2 0x10E1 PUSH2 0x1C2 PUSH2 0xD8B SWAP3 PUSH2 0x672 JUMP JUMPDEST DUP3 SLOAD PUSH2 0x10C7 JUMP JUMPDEST PUSH2 0x1C2 PUSH2 0x100 PUSH2 0x4F8 JUMP JUMPDEST SWAP1 PUSH1 0x1 PUSH1 0x1 PUSH1 0xA0 SHL SUB SWAP1 PUSH2 0xD6A JUMP JUMPDEST SWAP1 PUSH2 0x1112 PUSH2 0x1C2 PUSH2 0xD8B SWAP3 PUSH2 0xA87 JUMP JUMPDEST DUP3 SLOAD PUSH2 0x10F3 JUMP JUMPDEST SWAP2 PUSH1 0x0 NOT PUSH1 0x8 SWAP3 SWAP1 SWAP3 MUL SWAP2 DUP3 SHL SWAP2 SHL PUSH2 0xD6A JUMP JUMPDEST SWAP2 SWAP1 PUSH2 0x113E PUSH2 0x1C2 PUSH2 0xD8B SWAP4 PUSH2 0x672 JUMP JUMPDEST SWAP1 DUP4 SLOAD PUSH2 0x1119 JUMP JUMPDEST PUSH2 0x1AC SWAP2 PUSH1 0x0 SWAP2 PUSH2 0x112D JUMP JUMPDEST DUP2 DUP2 LT PUSH2 0x115D JUMPI POP POP JUMP JUMPDEST DUP1 PUSH2 0x116B PUSH1 0x0 PUSH1 0x1 SWAP4 PUSH2 0x1146 JUMP JUMPDEST ADD PUSH2 0x1152 JUMP JUMPDEST SWAP2 SWAP1 PUSH1 0x1F DUP2 GT PUSH2 0x1180 JUMPI POP POP POP JUMP JUMPDEST PUSH2 0x1192 PUSH2 0x1AC SWAP4 PUSH1 0x0 MSTORE PUSH1 0x20 PUSH1 0x0 KECCAK256 SWAP1 JUMP JUMPDEST SWAP1 PUSH1 0x20 PUSH1 0x1F DUP5 ADD DUP2 SWAP1 DIV DUP4 ADD SWAP4 LT PUSH2 0x11B4 JUMPI JUMPDEST PUSH1 0x20 PUSH1 0x1F SWAP1 SWAP2 ADD DIV ADD SWAP1 PUSH2 0x1152 JUMP JUMPDEST SWAP1 SWAP2 POP DUP2 SWAP1 PUSH2 0x11A5 JUMP JUMPDEST SWAP1 PUSH2 0x11C7 DUP2 MLOAD SWAP1 JUMP JUMPDEST SWAP1 PUSH8 0xFFFFFFFFFFFFFFFF DUP3 GT PUSH2 0x4F3 JUMPI PUSH2 0x11EB DUP3 PUSH2 0x11E5 DUP6 SLOAD PUSH2 0x6BE JUMP JUMPDEST DUP6 PUSH2 0x1171 JUMP JUMPDEST PUSH1 0x20 SWAP1 PUSH1 0x1F DUP4 GT PUSH1 0x1 EQ PUSH2 0x1226 JUMPI PUSH2 0xD8B SWAP3 SWAP2 PUSH1 0x0 SWAP2 DUP4 PUSH2 0x121B JUMPI JUMPDEST POP POP PUSH1 0x0 NOT PUSH1 0x8 DUP4 MUL SHR NOT AND SWAP1 PUSH1 0x2 MUL OR SWAP1 JUMP JUMPDEST ADD MLOAD SWAP1 POP CODESIZE DUP1 PUSH2 0x1207 JUMP JUMPDEST PUSH1 0x1F NOT DUP4 AND SWAP2 PUSH2 0x123B DUP6 PUSH1 0x0 MSTORE PUSH1 0x20 PUSH1 0x0 KECCAK256 SWAP1 JUMP JUMPDEST SWAP3 PUSH1 0x0 JUMPDEST DUP2 DUP2 LT PUSH2 0x1279 JUMPI POP SWAP2 PUSH1 0x2 SWAP4 SWAP2 DUP6 PUSH1 0x1 SWAP7 SWAP5 LT PUSH2 0x1260 JUMPI JUMPDEST POP POP POP MUL ADD SWAP1 SSTORE JUMP JUMPDEST ADD MLOAD PUSH1 0x0 NOT PUSH1 0x8 PUSH1 0x1F DUP6 AND MUL SHR NOT AND SWAP1 SSTORE CODESIZE DUP1 DUP1 PUSH2 0x1257 JUMP JUMPDEST SWAP2 SWAP4 PUSH1 0x20 PUSH1 0x1 DUP2 SWAP3 DUP8 DUP8 ADD MLOAD DUP2 SSTORE ADD SWAP6 ADD SWAP3 ADD PUSH2 0x123F JUMP JUMPDEST SWAP1 PUSH2 0x1AC SWAP2 PUSH2 0x11BE JUMP JUMPDEST PUSH2 0x1AC SWAP2 SWAP1 PUSH2 0x12B4 SWAP1 PUSH1 0xE0 SWAP1 PUSH1 0x7 SWAP1 PUSH2 0x12BA DUP2 DUP6 DUP8 MLOAD SWAP1 JUMP JUMPDEST SWAP1 PUSH2 0x10D1 JUMP JUMPDEST PUSH2 0x12DB PUSH1 0x1 DUP3 ADD PUSH2 0x12D5 PUSH1 0x20 DUP9 ADD MLOAD PUSH1 0x1 PUSH1 0x1 PUSH1 0xA0 SHL SUB AND SWAP1 JUMP JUMPDEST SWAP1 PUSH2 0x1102 JUMP JUMPDEST PUSH2 0x12F3 PUSH1 0x2 DUP3 ADD PUSH2 0x12ED PUSH1 0x40 DUP9 ADD MLOAD SWAP1 JUMP JUMPDEST SWAP1 PUSH2 0x1291 JUMP JUMPDEST PUSH2 0x1305 PUSH1 0x3 DUP3 ADD PUSH2 0x12ED PUSH1 0x60 DUP9 ADD MLOAD SWAP1 JUMP JUMPDEST PUSH2 0x1317 PUSH1 0x4 DUP3 ADD PUSH2 0x12B4 PUSH1 0x80 DUP9 ADD MLOAD SWAP1 JUMP JUMPDEST PUSH2 0x1329 PUSH1 0x5 DUP3 ADD PUSH2 0x12ED PUSH1 0xA0 DUP9 ADD MLOAD SWAP1 JUMP JUMPDEST PUSH2 0x1343 PUSH1 0x6 DUP3 ADD PUSH2 0x133D PUSH1 0xC0 DUP9 ADD MLOAD ISZERO ISZERO SWAP1 JUMP JUMPDEST SWAP1 PUSH2 0xD74 JUMP JUMPDEST ADD SWAP3 ADD MLOAD SWAP1 JUMP JUMPDEST SWAP1 PUSH2 0x1AC SWAP2 PUSH2 0x129B JUMP JUMPDEST SWAP1 DUP2 SLOAD SWAP2 PUSH9 0x10000000000000000 DUP4 LT ISZERO PUSH2 0x4F3 JUMPI DUP3 PUSH2 0x137C SWAP2 PUSH1 0x1 PUSH2 0x1AC SWAP6 ADD DUP2 SSTORE PUSH2 0xAB0 JUMP JUMPDEST SWAP1 PUSH2 0x112D JUMP JUMPDEST SWAP4 SWAP3 SWAP1 PUSH2 0x13B2 PUSH2 0x1AC SWAP4 PUSH2 0x13A4 PUSH1 0x40 SWAP4 PUSH1 0x60 DUP10 ADD SWAP1 DUP10 DUP3 SUB PUSH1 0x0 DUP12 ADD MSTORE PUSH2 0x269 JUMP JUMPDEST SWAP1 DUP8 DUP3 SUB PUSH1 0x20 DUP10 ADD MSTORE PUSH2 0x269 JUMP JUMPDEST SWAP5 ADD MSTORE JUMP JUMPDEST POP SWAP3 SWAP4 SWAP1 SWAP3 SWAP2 PUSH1 0x0 SWAP1 PUSH2 0x13C9 DUP3 PUSH2 0xEEB JUMP JUMPDEST PUSH1 0x1 PUSH1 0x1 PUSH1 0xA0 SHL SUB AND PUSH1 0x1 PUSH1 0x1 PUSH1 0xA0 SHL SUB DUP6 AND EQ ISZERO PUSH2 0x13E7 SWAP1 PUSH2 0xEF4 JUMP JUMPDEST DUP5 MLOAD PUSH2 0x13F2 DUP4 PUSH2 0x672 JUMP JUMPDEST LT PUSH2 0x13FC SWAP1 PUSH2 0xF40 JUMP JUMPDEST DUP1 MLOAD PUSH2 0x1407 DUP4 PUSH2 0x672 JUMP JUMPDEST LT PUSH2 0x1411 SWAP1 PUSH2 0xF81 JUMP JUMPDEST DUP3 MLOAD PUSH2 0x141C DUP4 PUSH2 0x672 JUMP JUMPDEST LT PUSH2 0x1426 SWAP1 PUSH2 0xFC4 JUMP JUMPDEST TIMESTAMP SWAP2 PUSH2 0x1434 DUP4 DUP9 GT ISZERO PUSH2 0x1005 JUMP JUMPDEST PUSH1 0x6 SWAP1 PUSH2 0x1441 DUP6 DUP4 PUSH2 0xA17 JUMP JUMPDEST PUSH2 0x144A SWAP1 PUSH2 0x7A2 JUMP JUMPDEST ISZERO PUSH2 0x1454 SWAP1 PUSH2 0x1051 JUMP JUMPDEST PUSH2 0x145E PUSH1 0x3 PUSH2 0x69E JUMP JUMPDEST PUSH2 0x1467 SWAP1 PUSH2 0x10B3 JUMP JUMPDEST PUSH2 0x1472 SWAP1 PUSH1 0x3 PUSH2 0x10D1 JUMP JUMPDEST PUSH2 0x147C PUSH1 0x3 PUSH2 0x69E JUMP JUMPDEST SWAP8 PUSH1 0x1 SWAP4 DUP10 PUSH2 0x1489 PUSH2 0x10E8 JUMP JUMPDEST SWAP4 DUP5 ADD MSTORE PUSH1 0x1 PUSH1 0x1 PUSH1 0xA0 SHL SUB DUP9 AND PUSH1 0x20 DUP5 ADD MSTORE PUSH1 0x40 DUP4 ADD DUP10 SWAP1 MSTORE PUSH1 0x60 DUP4 ADD MSTORE PUSH1 0x80 DUP3 ADD MSTORE PUSH1 0xA0 DUP2 ADD DUP6 SWAP1 MSTORE DUP3 ISZERO ISZERO PUSH1 0xC0 DUP3 ADD MSTORE PUSH2 0x14C7 DUP5 PUSH1 0xE0 DUP4 ADD MSTORE JUMP JUMPDEST PUSH2 0x14D2 DUP9 PUSH1 0x4 PUSH2 0x67F JUMP JUMPDEST SWAP1 PUSH2 0x14DC SWAP2 PUSH2 0x134A JUMP JUMPDEST DUP4 DUP8 PUSH2 0x14E9 DUP8 PUSH1 0x5 PUSH2 0xA90 JUMP JUMPDEST SWAP1 PUSH2 0x14F3 SWAP2 PUSH2 0x1354 JUMP JUMPDEST PUSH2 0x14FC SWAP2 PUSH2 0xA17 JUMP JUMPDEST SWAP1 PUSH2 0x1506 SWAP2 PUSH2 0xD74 JUMP JUMPDEST PUSH32 0xA220121DAE68FEB03ECA9F5B9665ACAE4C4EAE049AE4819148B54B48AFF0B71E SWAP2 PUSH2 0x1531 DUP7 PUSH2 0x672 JUMP JUMPDEST SWAP4 PUSH2 0x153B SWAP1 PUSH2 0xA87 JUMP JUMPDEST SWAP5 PUSH2 0x1545 PUSH1 0x40 MLOAD SWAP1 JUMP JUMPDEST SWAP3 DUP4 SWAP3 PUSH2 0x1552 SWAP3 DUP5 PUSH2 0x1382 JUMP JUMPDEST SUB SWAP1 LOG3 SWAP1 JUMP JUMPDEST PUSH2 0x1C2 SWAP5 SWAP4 SWAP3 SWAP2 SWAP1 PUSH1 0x0 PUSH2 0xE7C JUMP JUMPDEST PUSH2 0x156F PUSH2 0xE72 JUMP JUMPDEST PUSH2 0x1575 JUMPI JUMP JUMPDEST PUSH1 0x40 MLOAD PUSH4 0xD93C0665 PUSH1 0xE0 SHL DUP2 MSTORE PUSH1 0x4 SWAP1 REVERT JUMPDEST PUSH2 0x1C2 PUSH1 0x2 PUSH2 0x672 JUMP JUMPDEST PUSH2 0x159B PUSH1 0x2 PUSH2 0x69E JUMP JUMPDEST PUSH2 0x15A3 PUSH2 0x1587 JUMP JUMPDEST SWAP1 DUP2 SWAP1 PUSH2 0x15AF JUMP JUMPDEST SWAP2 SWAP1 JUMP JUMPDEST EQ PUSH2 0x15BF JUMPI PUSH2 0x1AC SWAP1 PUSH1 0x2 PUSH2 0x10D1 JUMP JUMPDEST PUSH1 0x40 MLOAD PUSH4 0x3EE5AEB5 PUSH1 0xE0 SHL DUP2 MSTORE PUSH1 0x4 SWAP1 REVERT JUMPDEST PUSH2 0x1C2 PUSH1 0x1 PUSH2 0x672 JUMP JUMPDEST PUSH2 0x1AC PUSH2 0x15E6 PUSH2 0x15D1 JUMP JUMPDEST PUSH1 0x2 PUSH2 0x10D1 JUMP JUMPDEST SWAP1 PUSH2 0x1AC PUSH2 0x16A6 PUSH1 0x7 PUSH2 0x15FE PUSH2 0x10E8 JUMP JUMPDEST SWAP5 PUSH2 0x160F PUSH2 0x160B DUP3 PUSH2 0x69E JUMP JUMPDEST DUP8 MSTORE JUMP JUMPDEST PUSH2 0x1636 PUSH2 0x1626 PUSH1 0x1 DUP4 ADD SLOAD PUSH1 0x1 PUSH1 0x1 PUSH1 0xA0 SHL SUB AND SWAP1 JUMP JUMPDEST PUSH1 0x1 PUSH1 0x1 PUSH1 0xA0 SHL SUB AND PUSH1 0x20 DUP9 ADD MSTORE JUMP JUMPDEST PUSH2 0x164C PUSH2 0x1645 PUSH1 0x2 DUP4 ADD PUSH2 0x776 JUMP JUMPDEST PUSH1 0x40 DUP9 ADD MSTORE JUMP JUMPDEST PUSH2 0x1662 PUSH2 0x165B PUSH1 0x3 DUP4 ADD PUSH2 0x776 JUMP JUMPDEST PUSH1 0x60 DUP9 ADD MSTORE JUMP JUMPDEST PUSH2 0x1678 PUSH2 0x1671 PUSH1 0x4 DUP4 ADD PUSH2 0x69E JUMP JUMPDEST PUSH1 0x80 DUP9 ADD MSTORE JUMP JUMPDEST PUSH2 0x168E PUSH2 0x1687 PUSH1 0x5 DUP4 ADD PUSH2 0x776 JUMP JUMPDEST PUSH1 0xA0 DUP9 ADD MSTORE JUMP JUMPDEST PUSH2 0xC71 PUSH2 0x169D PUSH1 0x6 DUP4 ADD PUSH2 0x7A2 JUMP JUMPDEST ISZERO ISZERO PUSH1 0xC0 DUP9 ADD MSTORE JUMP JUMPDEST PUSH1 0xE0 DUP5 ADD MSTORE JUMP JUMPDEST PUSH2 0x1C2 SWAP1 PUSH2 0x15ED JUMP JUMPDEST ISZERO PUSH2 0x16BD JUMPI JUMP JUMPDEST PUSH1 0x40 MLOAD PUSH3 0x461BCD PUSH1 0xE5 SHL DUP2 MSTORE PUSH1 0x20 PUSH1 0x4 DUP3 ADD MSTORE PUSH1 0x1A PUSH1 0x24 DUP3 ADD MSTORE PUSH32 0x436572746966696361746520646F6573206E6F74206578697374000000000000 PUSH1 0x44 DUP3 ADD MSTORE PUSH1 0x64 SWAP1 REVERT JUMPDEST PUSH2 0x1719 PUSH2 0x171E SWAP2 PUSH2 0x1711 PUSH1 0x0 SWAP1 JUMP JUMPDEST POP PUSH1 0x4 PUSH2 0x67F JUMP JUMPDEST PUSH2 0x16AD JUMP JUMPDEST SWAP1 PUSH2 0x173E PUSH2 0x172A DUP4 MLOAD SWAP1 JUMP JUMPDEST PUSH2 0x1737 PUSH2 0x15AB PUSH1 0x0 PUSH2 0x672 JUMP JUMPDEST EQ ISZERO PUSH2 0x16B6 JUMP JUMPDEST PUSH1 0xC0 DUP3 ADD MLOAD ISZERO ISZERO SWAP1 PUSH2 0x175A PUSH1 0x20 DUP5 ADD MLOAD PUSH1 0x1 PUSH1 0x1 PUSH1 0xA0 SHL SUB AND SWAP1 JUMP JUMPDEST SWAP3 PUSH1 0x40 DUP2 ADD MLOAD SWAP3 PUSH1 0x60 DUP3 ADD MLOAD SWAP3 PUSH1 0xA0 PUSH2 0x1774 PUSH1 0x80 DUP6 ADD MLOAD SWAP1 JUMP JUMPDEST SWAP4 ADD MLOAD SWAP2 SWAP6 SWAP5 SWAP4 SWAP3 SWAP2 SWAP1 JUMP JUMPDEST SWAP1 ISZERO ISZERO DUP2 MSTORE PUSH1 0x40 DUP2 ADD SWAP3 SWAP2 PUSH2 0x1AC SWAP2 PUSH1 0x20 ADD MSTORE JUMP JUMPDEST PUSH2 0x17A3 PUSH2 0x1719 DUP3 PUSH1 0x4 PUSH2 0x67F JUMP JUMPDEST PUSH2 0x17AE PUSH2 0x172A DUP3 MLOAD SWAP1 JUMP JUMPDEST PUSH1 0xC0 ADD MLOAD CALLER SWAP1 ISZERO ISZERO SWAP2 TIMESTAMP PUSH2 0x17EB PUSH2 0x17E5 PUSH32 0x701A047DF369EE10E7CD6431B27B75996D2084160A65AEE60285D46F066ED197 SWAP4 PUSH2 0x672 JUMP JUMPDEST SWAP4 PUSH2 0xA87 JUMP JUMPDEST SWAP4 PUSH2 0x1801 PUSH2 0x17F8 PUSH1 0x40 MLOAD SWAP1 JUMP JUMPDEST SWAP3 DUP4 SWAP3 DUP4 PUSH2 0x1780 JUMP JUMPDEST SUB SWAP1 LOG3 JUMP JUMPDEST SWAP1 PUSH2 0x1821 PUSH2 0x1815 PUSH2 0xBB4 DUP5 SLOAD SWAP1 JUMP JUMPDEST SWAP3 PUSH1 0x0 MSTORE PUSH1 0x20 PUSH1 0x0 KECCAK256 SWAP1 JUMP JUMPDEST SWAP1 PUSH1 0x0 JUMPDEST DUP2 DUP2 LT PUSH2 0x1832 JUMPI POP POP POP SWAP1 JUMP JUMPDEST SWAP1 SWAP2 SWAP3 PUSH2 0x1856 PUSH2 0x184F PUSH1 0x1 SWAP3 PUSH2 0x1847 DUP8 PUSH2 0x69E JUMP JUMPDEST DUP2 MSTORE PUSH1 0x20 ADD SWAP1 JUMP JUMPDEST SWAP5 PUSH1 0x1 ADD SWAP1 JUMP JUMPDEST SWAP3 SWAP2 ADD PUSH2 0x1825 JUMP JUMPDEST SWAP1 PUSH2 0x1C2 SWAP2 PUSH2 0x1806 JUMP JUMPDEST SWAP1 PUSH2 0x1AC PUSH2 0x790 SWAP3 PUSH2 0x1879 PUSH1 0x40 MLOAD SWAP1 JUMP JUMPDEST SWAP4 DUP5 DUP1 SWAP3 PUSH2 0x185E JUMP JUMPDEST PUSH2 0x1C2 SWAP1 PUSH2 0x1868 JUMP JUMPDEST PUSH2 0x18A2 PUSH2 0x1C2 SWAP2 PUSH2 0x189A PUSH1 0x60 SWAP1 JUMP JUMPDEST POP PUSH1 0x5 PUSH2 0xA90 JUMP JUMPDEST PUSH2 0x1882 JUMP JUMPDEST PUSH2 0x18AF PUSH2 0x10E8 JUMP JUMPDEST SWAP1 PUSH1 0x0 DUP3 MSTORE PUSH1 0x20 DUP1 DUP1 DUP1 DUP1 DUP1 DUP1 DUP1 DUP10 ADD PUSH1 0x0 DUP2 MSTORE ADD PUSH1 0x60 DUP2 MSTORE ADD PUSH1 0x60 DUP2 MSTORE ADD PUSH1 0x0 DUP2 MSTORE ADD PUSH1 0x60 DUP2 MSTORE ADD PUSH1 0x0 DUP2 MSTORE ADD PUSH1 0x0 SWAP1 MSTORE POP JUMP JUMPDEST PUSH2 0x1C2 PUSH2 0x18A7 JUMP JUMPDEST PUSH2 0x1719 PUSH2 0x1C2 SWAP2 PUSH2 0x18FB PUSH2 0x18E4 JUMP JUMPDEST POP PUSH1 0x4 PUSH2 0x1910 PUSH2 0x172A PUSH1 0x0 PUSH2 0xC71 DUP6 DUP6 PUSH2 0x67F JUMP JUMPDEST PUSH2 0x67F JUMP JUMPDEST PUSH2 0x1AC SWAP1 PUSH2 0x1930 PUSH1 0x0 DUP1 MLOAD PUSH1 0x20 PUSH2 0x1B87 DUP4 CODECOPY DUP2 MLOAD SWAP2 MSTORE PUSH2 0xCA4 JUMP JUMPDEST PUSH2 0x1981 JUMP JUMPDEST ISZERO PUSH2 0x193C JUMPI JUMP JUMPDEST PUSH1 0x40 MLOAD PUSH3 0x461BCD PUSH1 0xE5 SHL DUP2 MSTORE PUSH1 0x20 PUSH1 0x4 DUP3 ADD MSTORE PUSH1 0x1B PUSH1 0x24 DUP3 ADD MSTORE PUSH32 0x436572746966696361746520616C7265616479207265766F6B65640000000000 PUSH1 0x44 DUP3 ADD MSTORE PUSH1 0x64 SWAP1 REVERT JUMPDEST PUSH2 0x19C2 PUSH2 0x1992 PUSH2 0x1C2 DUP4 PUSH1 0x4 PUSH2 0x67F JUMP JUMPDEST PUSH1 0x6 PUSH2 0x199D DUP3 PUSH2 0x69E JUMP JUMPDEST SWAP2 PUSH2 0x19B0 PUSH1 0x0 SWAP4 PUSH2 0x1737 PUSH2 0x15AB DUP7 PUSH2 0x672 JUMP JUMPDEST ADD PUSH2 0xDB8 PUSH2 0x19BD DUP3 PUSH2 0x7A2 JUMP JUMPDEST PUSH2 0x1935 JUMP JUMPDEST CALLER TIMESTAMP SWAP2 PUSH2 0x1801 PUSH2 0x19F5 PUSH2 0x17E5 PUSH32 0x1ADBF4393900CE3A2332405B86649270C35D1316887336D83190DCBAE6A423B9 SWAP4 PUSH2 0x672 JUMP JUMPDEST SWAP4 PUSH2 0x35C PUSH1 0x40 MLOAD SWAP1 JUMP JUMPDEST PUSH2 0x1AC SWAP1 PUSH2 0x1915 JUMP JUMPDEST PUSH2 0x1C2 SWAP2 PUSH2 0xC39 JUMP JUMPDEST PUSH2 0x1C2 PUSH1 0x3 PUSH2 0x69E JUMP JUMPDEST PUSH2 0x1A32 PUSH1 0x0 DUP1 MLOAD PUSH1 0x20 PUSH2 0x1B87 DUP4 CODECOPY DUP2 MLOAD SWAP2 MSTORE PUSH2 0xCA4 JUMP JUMPDEST PUSH2 0x1AC PUSH2 0x1AC PUSH2 0x1AA6 JUMP JUMPDEST PUSH2 0x1AC PUSH2 0x1A1B JUMP JUMPDEST PUSH2 0x1A4D PUSH2 0x1567 JUMP JUMPDEST PUSH2 0x1AC PUSH2 0x1A5B PUSH1 0x1 DUP1 PUSH2 0xD74 JUMP JUMPDEST CALLER PUSH2 0x1AA1 PUSH32 0x62E78CEA01BEE320CD4E420270B5EA74000D11B0C9F74754EBDBFC544B05A258 SWAP2 PUSH2 0x1A8A PUSH1 0x40 MLOAD SWAP1 JUMP JUMPDEST SWAP2 DUP3 SWAP2 DUP3 PUSH1 0x1 PUSH1 0x1 PUSH1 0xA0 SHL SUB SWAP1 SWAP2 AND DUP2 MSTORE PUSH1 0x20 ADD SWAP1 JUMP JUMPDEST SUB SWAP1 LOG1 JUMP JUMPDEST PUSH2 0x1AC PUSH2 0x1A45 JUMP JUMPDEST PUSH2 0x1AC5 PUSH1 0x0 DUP1 MLOAD PUSH1 0x20 PUSH2 0x1B87 DUP4 CODECOPY DUP2 MLOAD SWAP2 MSTORE PUSH2 0xCA4 JUMP JUMPDEST PUSH2 0x1AC PUSH2 0x1AC PUSH2 0x1B1E JUMP JUMPDEST PUSH2 0x1AC PUSH2 0x1AAE JUMP JUMPDEST PUSH2 0x1AE0 PUSH2 0x1B26 JUMP JUMPDEST PUSH2 0x1AC PUSH2 0x1AEF PUSH1 0x0 PUSH1 0x1 PUSH2 0xD74 JUMP JUMPDEST CALLER PUSH2 0x1AA1 PUSH32 0x5DB9EE0A495BF2E6FF9C91A7834C1BA4FDD244A5E8AA4E537BD38AEAE4B073AA SWAP2 PUSH2 0x1A8A PUSH1 0x40 MLOAD SWAP1 JUMP JUMPDEST PUSH2 0x1AC PUSH2 0x1AD8 JUMP JUMPDEST PUSH2 0x1B31 PUSH2 0xCDA PUSH2 0xE72 JUMP JUMPDEST PUSH2 0x1B37 JUMPI JUMP JUMPDEST PUSH1 0x40 MLOAD PUSH4 0x8DFC202B PUSH1 0xE0 SHL DUP2 MSTORE PUSH1 0x4 SWAP1 REVERT JUMPDEST PUSH2 0x1C2 SWAP1 PUSH4 0x7965DB0B PUSH1 0xE0 SHL PUSH1 0x1 PUSH1 0x1 PUSH1 0xE0 SHL SUB NOT DUP3 AND EQ SWAP1 DUP2 ISZERO PUSH2 0x1B6C JUMPI POP SWAP1 JUMP JUMPDEST PUSH1 0x1 PUSH1 0x1 PUSH1 0xE0 SHL SUB NOT AND PUSH4 0x1FFC9A7 PUSH1 0xE0 SHL EQ SWAP1 POP PUSH2 0x1C2 JUMP INVALID LOG4 SWAP9 SMOD KECCAK256 0x5C 0xE4 0xD3 SSTORE MULMOD 0x2E CREATE2 0xA8 LOG1 DUP16 JUMP 0xE8 SWAP2 EXTCODECOPY DELEGATECALL LOG2 ADD 0xFB 0xE2 DUP8 DUP3 JUMPDEST MULMOD JUMP SWAP4 0xC2 OR PUSH22 0xA2646970667358221220F79E9919CAB350587A1DE3F1 0xB1 PUSH23 0x27DCC547C5D1E546D61C6D87F7AD48BEEEF064736F6C63 NUMBER STOP ADDMOD EQ STOP CALLER "},"methodIdentifiers":{"ADMIN_ROLE()":"75b238fc","DEFAULT_ADMIN_ROLE()":"a217fddf","MINTER_ROLE()":"d5391393","certificates(uint256)":"663b3e22","getCertificate(uint256)":"51640fee","getRoleAdmin(bytes32)":"248a9ca3","getStudentCertificates(address)":"ebc63bc0","grantRole(bytes32,address)":"2f2ff15d","hasRole(address,bytes32)":"ac4ab3fb","hasRole(bytes32,address)":"91d14854","logVerification(uint256)":"55fa81e6","mintCertificate(address,string,string,uint256,string)":"542d2a97","pause()":"8456cb59","paused()":"5c975abb","renounceRole(bytes32,address)":"36568abe","revokeCertificate(uint256)":"06f5497e","revokeRole(bytes32,address)":"d547741f","studentCertificates(address,uint256)":"c3934f0e","supportsInterface(bytes4)":"01ffc9a7","totalCertificates()":"596b772f","unpause()":"3f4ba83a","usedHashes(string)":"bd1f5f31","verifyCertificate(uint256)":"1692a942"}}}}}