{
  "_format": "hh-sol-artifact-1",
  "contractName": "CertificateRegistry",
  "sourceName": "contracts/CertificateRegistry.sol",
  "abi": [
    {
      "inputs": [],
      "stateMutability": "nonpayable",
      "type": "constructor"
    },
    {
      "inputs": [],
      "name": "AccessControlBadConfirmation",
      "type": "error"
    },
    {
      "inputs": [
        {
          "internalType": "address",
          "name": "account",
          "type": "address"
        },
        {
          "internalType": "bytes32",
          "name": "neededRole",
          "type": "bytes32"
        }
      ],
      "name": "AccessControlUnauthorizedAccount",
      "type": "error"
    },
    {
      "inputs": [],
      "name": "EnforcedPause",
      "type": "error"
    },
    {
      "inputs": [],
      "name": "ExpectedPause",
      "type": "error"
    },
    {
      "inputs": [],
      "name": "ReentrancyGuardReentrantCall",
      "type": "error"
    },
    {
      "anonymous": false,
      "inputs": [
        {
          "indexed": true,
          "internalType": "uint256",
          "name": "certificateId",
          "type": "uint256"
        },
        {
          "indexed": true,
          "internalType": "address",
          "name": "student",
          "type": "address"
        },
        {
          "indexed": false,
          "internalType": "string",
          "name": "courseId",
          "type": "string"
        },
        {
          "indexed": false,
          "internalType": "string",
          "name": "ipfsHash",
          "type": "string"
        },
        {
          "indexed": false,
          "internalType": "uint256",
          "name": "timestamp",
          "type": "uint256"
        }
      ],
      "name": "CertificateMinted",
      "type": "event"
    },
    {
      "anonymous": false,
      "inputs": [
        {
          "indexed": true,
          "internalType": "uint256",
          "name": "certificateId",
          "type": "uint256"
        },
        {
          "indexed": true,
          "internalType": "address",
          "name": "revokedBy",
          "type": "address"
        },
        {
          "indexed": false,
          "internalType": "uint256",
          "name": "timestamp",
          "type": "uint256"
        }
      ],
      "name": "CertificateRevoked",
      "type": "event"
    },
    {
      "anonymous": false,
      "inputs": [
        {
          "indexed": true,
          "internalType": "uint256",
          "name": "certificateId",
          "type": "uint256"
        },
        {
          "indexed": true,
          "internalType": "address",
          "name": "verifier",
          "type": "address"
        },
        {
          "indexed": false,
          "internalType": "bool",
          "name": "isValid",
          "type": "bool"
        },
        {
          "indexed": false,
          "internalType": "uint256",
          "name": "timestamp",
          "type": "uint256"
        }
      ],
      "name": "CertificateVerified",
      "type": "event"
    },
    {
      "anonymous": false,
      "inputs": [
        {
          "indexed": false,
          "internalType": "address",
          "name": "account",
          "type": "address"
        }
      ],
      "name": "Paused",
      "type": "event"
    },
    {
      "anonymous": false,
      "inputs": [
        {
          "indexed": true,
          "internalType": "bytes32",
          "name": "role",
          "type": "bytes32"
        },
        {
          "indexed": true,
          "internalType": "bytes32",
          "name": "previousAdminRole",
          "type": "bytes32"
        },
        {
          "indexed": true,
          "internalType": "bytes32",
          "name": "newAdminRole",
          "type": "bytes32"
        }
      ],
      "name": "RoleAdminChanged",
      "type": "event"
    },
    {
      "anonymous": false,
      "inputs": [
        {
          "indexed": true,
          "internalType": "bytes32",
          "name": "role",
          "type": "bytes32"
        },
        {
          "indexed": true,
          "internalType": "address",
          "name": "account",
          "type": "address"
        },
        {
          "indexed": true,
          "internalType": "address",
          "name": "sender",
          "type": "address"
        }
      ],
      "name": "RoleGranted",
      "type": "event"
    },
    {
      "anonymous": false,
      "inputs": [
        {
          "indexed": true,
          "internalType": "bytes32",
          "name": "role",
          "type": "bytes32"
        },
        {
          "indexed": true,
          "internalType": "address",
          "name": "account",
          "type": "address"
        },
        {
          "indexed": true,
          "internalType": "address",
          "name": "sender",
          "type": "address"
        }
      ],
      "name": "RoleRevoked",
      "type": "event"
    },
    {
      "anonymous": false,
      "inputs": [
        {
          "indexed": false,
          "internalType": "address",
          "name": "account",
          "type": "address"
        }
      ],
      "name": "Unpaused",
      "type": "event"
    },
    {
      "inputs": [],
      "name": "ADMIN_ROLE",
      "outputs": [
        {
          "internalType": "bytes32",
          "name": "",
          "type": "bytes32"
        }
      ],
      "stateMutability": "view",
      "type": "function"
    },
    {
      "inputs": [],
      "name": "DEFAULT_ADMIN_ROLE",
      "outputs": [
        {
          "internalType": "bytes32",
          "name": "",
          "type": "bytes32"
        }
      ],
      "stateMutability": "view",
      "type": "function"
    },
    {
      "inputs": [],
      "name": "MINTER_ROLE",
      "outputs": [
        {
          "internalType": "bytes32",
          "name": "",
          "type": "bytes32"
        }
      ],
      "stateMutability": "view",
      "type": "function"
    },
    {
      "inputs": [
        {
          "internalType": "uint256",
          "name": "",
          "type": "uint256"
        }
      ],
      "name": "certificates",
      "outputs": [
        {
          "internalType": "uint256",
          "name": "id",
          "type": "uint256"
        },
        {
          "internalType": "address",
          "name": "student",
          "type": "address"
        },
        {
          "internalType": "string",
          "name": "courseId",
          "type": "string"
        },
        {
          "internalType": "string",
          "name": "courseName",
          "type": "string"
        },
        {
          "internalType": "uint256",
          "name": "completionDate",
          "type": "uint256"
        },
        {
          "internalType": "string",
          "name": "ipfsHash",
          "type": "string"
        },
        {
          "internalType": "bool",
          "name": "isValid",
          "type": "bool"
        },
        {
          "internalType": "uint256",
          "name": "mintedAt",
          "type": "uint256"
        }
      ],
      "stateMutability": "view",
      "type": "function"
    },
    {
      "inputs": [
        {
          "internalType": "uint256",
          "name": "_certificateId",
          "type": "uint256"
        }
      ],
      "name": "getCertificate",
      "outputs": [
        {
          "components": [
            {
              "internalType": "uint256",
              "name": "id",
              "type": "uint256"
            },
            {
              "internalType": "address",
              "name": "student",
              "type": "address"
            },
            {
              "internalType": "string",
              "name": "courseId",
              "type": "string"
            },
            {
              "internalType": "string",
              "name": "courseName",
              "type": "string"
            },
            {
              "internalType": "uint256",
              "name": "completionDate",
              "type": "uint256"
            },
            {
              "internalType": "string",
              "name": "ipfsHash",
              "type": "string"
            },
            {
              "internalType": "bool",
              "name": "isValid",
              "type": "bool"
            },
            {
              "internalType": "uint256",
              "name": "mintedAt",
              "type": "uint256"
            }
          ],
          "internalType": "struct CertificateRegistry.Certificate",
          "name": "",
          "type": "tuple"
        }
      ],
      "stateMutability": "view",
      "type": "function"
    },
    {
      "inputs": [
        {
          "internalType": "bytes32",
          "name": "role",
          "type": "bytes32"
        }
      ],
      "name": "getRoleAdmin",
      "outputs": [
        {
          "internalType": "bytes32",
          "name": "",
          "type": "bytes32"
        }
      ],
      "stateMutability": "view",
      "type": "function"
    },
    {
      "inputs": [
        {
          "internalType": "address",
          "name": "_student",
          "type": "address"
        }
      ],
      "name": "getStudentCertificates",
      "outputs": [
        {
          "internalType": "uint256[]",
          "name": "",
          "type": "uint256[]"
        }
      ],
      "stateMutability": "view",
      "type": "function"
    },
    {
      "inputs": [
        {
          "internalType": "bytes32",
          "name": "role",
          "type": "bytes32"
        },
        {
          "internalType": "address",
          "name": "account",
          "type": "address"
        }
      ],
      "name": "grantRole",
      "outputs": [],
      "stateMutability": "nonpayable",
      "type": "function"
    },
    {
      "inputs": [
        {
          "internalType": "bytes32",
          "name": "role",
          "type": "bytes32"
        },
        {
          "internalType": "address",
          "name": "account",
          "type": "address"
        }
      ],
      "name": "hasRole",
      "outputs": [
        {
          "internalType": "bool",
          "name": "",
          "type": "bool"
        }
      ],
      "stateMutability": "view",
      "type": "function"
    },
    {
      "inputs": [
        {
          "internalType": "address",
          "name": "_account",
          "type": "address"
        },
        {
          "internalType": "bytes32",
          "name": "_role",
          "type": "bytes32"
        }
      ],
      "name": "hasRole",
      "outputs": [
        {
          "internalType": "bool",
          "name": "",
          "type": "bool"
        }
      ],
      "stateMutability": "view",
      "type": "function"
    },
    {
      "inputs": [
        {
          "internalType": "uint256",
          "name": "_certificateId",
          "type": "uint256"
        }
      ],
      "name": "logVerification",
      "outputs": [],
      "stateMutability": "nonpayable",
      "type": "function"
    },
    {
      "inputs": [
        {
          "internalType": "address",
          "name": "_student",
          "type": "address"
        },
        {
          "internalType": "string",
          "name": "_courseId",
          "type": "string"
        },
        {
          "internalType": "string",
          "name": "_courseName",
          "type": "string"
        },
        {
          "internalType": "uint256",
          "name": "_completionDate",
          "type": "uint256"
        },
        {
          "internalType": "string",
          "name": "_ipfsHash",
          "type": "string"
        }
      ],
      "name": "mintCertificate",
      "outputs": [
        {
          "internalType": "uint256",
          "name": "",
          "type": "uint256"
        }
      ],
      "stateMutability": "nonpayable",
      "type": "function"
    },
    {
      "inputs": [],
      "name": "pause",
      "outputs": [],
      "stateMutability": "nonpayable",
      "type": "function"
    },
    {
      "inputs": [],
      "name": "paused",
      "outputs": [
        {
          "internalType": "bool",
          "name": "",
          "type": "bool"
        }
      ],
      "stateMutability": "view",
      "type": "function"
    },
    {
      "inputs": [
        {
          "internalType": "bytes32",
          "name": "role",
          "type": "bytes32"
        },
        {
          "internalType": "address",
          "name": "callerConfirmation",
          "type": "address"
        }
      ],
      "name": "renounceRole",
      "outputs": [],
      "stateMutability": "nonpayable",
      "type": "function"
    },
    {
      "inputs": [
        {
          "internalType": "uint256",
          "name": "_certificateId",
          "type": "uint256"
        }
      ],
      "name": "revokeCertificate",
      "outputs": [],
      "stateMutability": "nonpayable",
      "type": "function"
    },
    {
      "inputs": [
        {
          "internalType": "bytes32",
          "name": "role",
          "type": "bytes32"
        },
        {
          "internalType": "address",
          "name": "account",
          "type": "address"
        }
      ],
      "name": "revokeRole",
      "outputs": [],
      "stateMutability": "nonpayable",
      "type": "function"
    },
    {
      "inputs": [
        {
          "internalType": "address",
          "name": "",
          "type": "address"
        },
        {
          "internalType": "uint256",
          "name": "",
          "type": "uint256"
        }
      ],
      "name": "studentCertificates",
      "outputs": [
        {
          "internalType": "uint256",
          "name": "",
          "type": "uint256"
        }
      ],
      "stateMutability": "view",
      "type": "function"
    },
    {
      "inputs": [
        {
          "internalType": "bytes4",
          "name": "interfaceId",
          "type": "bytes4"
        }
      ],
      "name": "supportsInterface",
      "outputs": [
        {
          "internalType": "bool",
          "name": "",
          "type": "bool"
        }
      ],
      "stateMutability": "view",
      "type": "function"
    },
    {
      "inputs": [],
      "name": "totalCertificates",
      "outputs": [
        {
          "internalType": "uint256",
          "name": "",
          "type": "uint256"
        }
      ],
      "stateMutability": "view",
      "type": "function"
    },
    {
      "inputs": [],
      "name": "unpause",
      "outputs": [],
      "stateMutability": "nonpayable",
      "type": "function"
    },
    {
      "inputs": [
        {
          "internalType": "string",
          "name": "",
          "type": "string"
        }
      ],
      "name": "usedHashes",
      "outputs": [
        {
          "internalType": "bool",
          "name": "",
          "type": "bool"
        }
      ],
      "stateMutability": "view",
      "type": "function"
    },
    {
      "inputs": [
        {
          "internalType": "uint256",
          "name": "_certificateId",
          "type": "uint256"
        }
      ],
      "name": "verifyCertificate",
      "outputs": [
        {
          "internalType": "bool",
          "name": "isValid",
          "type": "bool"
        },
        {
          "internalType": "address",
          "name": "student",
          "type": "address"
        },
        {
          "internalType": "string",
          "name": "courseId",
          "type": "string"
        },
        {
          "internalType": "string",
          "name": "courseName",
          "type": "string"
        },
        {
          "internalType": "uint256",
          "name": "completionDate",
          "type": "uint256"
        },
        {
          "internalType": "string",
          "name": "ipfsHash",
          "type": "string"
        }
      ],
      "stateMutability": "view",
      "type": "function"
    }
  ],
  "bytecode": "0x6080604052346200002657620000146200004a565b604051611bdc6200026d8239611bdc90f35b600080fd5b6200003b6200003b6200003b9290565b90565b6200003b60006200002b565b6200005462000103565b620000c4620000626200003e565b6200006f338092620001a4565b506200009c817fa49807205ce4d355092ef5a8a18f56e8913cf4a201fbe287825b095693c21775620001a4565b507f9f2df0fed2c77648de5860a4cc508cd0818c85b8b8a1ab4ceeef8d981c8956a6620001a4565b50565b6200003b60016200002b565b90600019905b9181191691161790565b90620000f76200003b620000ff926200002b565b8254620000d3565b9055565b6200011962000111620000c7565b6002620000e3565b565b9062000127906200003b565b600052602052604060002090565b6200003b906200014b906001600160a01b031682565b6001600160a01b031690565b6200003b9062000135565b6200003b9062000157565b90620001279062000162565b9060ff90620000d9565b151590565b906200019c6200003b620000ff9262000183565b825462000179565b620001b8620001b483836200024e565b1590565b156200023557600191620001e683620001e0836000620001d987826200011b565b016200016d565b62000188565b3390620002236200021c6200021c7f2f8788117e7eff1d82e926ec794901d17c78024a50270940304540a733656f0d956200003b565b9262000162565b926200022e60405190565b600090a490565b5050600090565b60ff1690565b6200003b90546200023c565b6200003b916200026691620001d9600091826200011b565b6200024256fe6080604052600436101561001257600080fd5b60003560e01c806301ffc9a71461018257806306f5497e1461017d5780631692a94214610178578063248a9ca3146101735780632f2ff15d1461016e57806336568abe146101695780633f4ba83a1461016457806351640fee1461015f578063542d2a971461015a57806355fa81e614610155578063596b772f146101505780635c975abb1461014b578063663b3e221461014657806375b238fc146101415780638456cb591461013c57806391d1485414610137578063a217fddf14610132578063ac4ab3fb1461012d578063bd1f5f3114610128578063c3934f0e14610123578063d53913931461011e578063d547741f146101195763ebc63bc00361018757610c0c565b610b78565b610b3f565b610b23565b610a4f565b610984565b610946565b610918565b610900565b6108d9565b6108a2565b610657565b61063c565b610624565b610605565b610494565b6103e5565b6103c1565b6103a8565b61033d565b610309565b61021d565b6101c5565b600080fd5b6001600160e01b031981165b0361018757565b905035906101ac8261018c565b565b90602082820312610187576101c29161019f565b90565b34610187576101f26101e06101db3660046101ae565b611b49565b60405191829182901515815260200190565b0390f35b80610198565b905035906101ac826101f6565b90602082820312610187576101c2916101fc565b3461018757610235610230366004610209565b6119ff565b604051005b6001600160a01b031690565b60005b8381106102595750506000910152565b8181015183820152602001610249565b61028a61029360209361029d9361027e815190565b80835293849260200190565b95869101610246565b601f01601f191690565b0190565b92936102e66102f4926101c298966102d96102fc966102c960c08a019460008b019015159052565b6001600160a01b03166020890152565b8682036040880152610269565b908482036060860152610269565b936080830152565b60a0818403910152610269565b34610187576101f261032461031f366004610209565b611702565b9261033496949692919260405190565b968796876102a1565b34610187576101f2610358610353366004610209565b610c58565b6040515b9182918290815260200190565b6001600160a01b038116610198565b905035906101ac82610369565b9190604083820312610187576101c29061039f81856101fc565b93602001610378565b34610187576102356103bb366004610385565b90610c9a565b34610187576102356103d4366004610385565b90610d31565b600091031261018757565b34610187576103f53660046103da565b610235611ad0565b805182526020808201516001600160a01b031690830152906101c29060e08061046f61044e61043c610100860160408901518782036040890152610269565b60608801518682036060880152610269565b61045d60808801516080870152565b60a087015185820360a0870152610269565b60c080870151151590850152940151910152565b60208082526101c2929101906103fd565b34610187576101f26104af6104aa366004610209565b6118ec565b60405191829182610483565b634e487b7160e01b600052604160045260246000fd5b90601f01601f1916810190811067ffffffffffffffff8211176104f357604052565b6104bb565b906101ac61050560405190565b92836104d1565b67ffffffffffffffff81116104f357602090601f01601f19160190565b90826000939282370152565b9092919261054a6105458261050c565b6104f8565b93818552602085019082840111610187576101ac92610529565b9080601f83011215610187578160206101c293359101610535565b91909160a081840312610187576105968382610378565b92602082013567ffffffffffffffff811161018757816105b7918401610564565b92604083013567ffffffffffffffff811161018757826105d8918501610564565b926105e683606083016101fc565b92608082013567ffffffffffffffff8111610187576101c29201610564565b34610187576101f261035861061b36600461057f565b93929092611558565b3461018757610235610637366004610209565b611795565b346101875761064c3660046103da565b6101f2610358611a11565b34610187576106673660046103da565b6101f26101e0610e72565b6101c26101c26101c29290565b9061068990610672565b600052602052604060002090565b6101c29081565b6101c29054610697565b634e487b7160e01b600052602260045260246000fd5b90600160028304921680156106de575b60208310146106d957565b6106a8565b91607f16916106ce565b805460009392916107056106fb836106be565b8085529360200190565b9160018116908115610757575060011461071e57505050565b6107319192939450600052602060002090565b916000925b8184106107435750500190565b805484840152602090930192600101610736565b92949550505060ff1916825215156020020190565b906101c2916106e8565b906101ac6107909261078760405190565b9384809261076c565b03836104d1565b6101c2905b60ff1690565b6101c29054610797565b6107b790600461067f565b906107c18261069e565b916107d660018201546001600160a01b031690565b916107e360028301610776565b916107f060038201610776565b916107fd6004830161069e565b9161080a60058201610776565b916101c2600761081c600685016107a2565b930161069e565b939561088761087f6101ac999b9a986108718861089e986108646108949961085460e09e9a60006101008701960152565b6001600160a01b031660208d0152565b8a820360408c0152610269565b9088820360608a0152610269565b926080870152565b84820360a0860152610269565b96151560c0830152565b0152565b34610187576101f26108bd6108b8366004610209565b6107ac565b946108d098969894919493929360405190565b98899889610823565b34610187576108e93660046103da565b6101f2600080516020611b87833981519152610358565b34610187576109103660046103da565b610235611a3d565b34610187576101f26101e061092e366004610385565b90610c39565b6101c26000610672565b6101c2610934565b34610187576109563660046103da565b6101f261035861093e565b9190604083820312610187576101c29061097b8185610378565b936020016101fc565b34610187576101f26101e061099a366004610961565b90611a08565b9060208282031261018757813567ffffffffffffffff8111610187576101c29201610564565b61029d6109de926020926109d8815190565b94859290565b93849101610246565b6109f761029d91602094936109c6565b918252565b610a11610a0860405190565b928392836109e7565b03902090565b6101c2916109fc565b6101c2916008021c61079c565b906101c29154610a20565b6101c290610a4a600691600092610a17565b610a2d565b34610187576101f26101e0610a653660046109a0565b610a38565b6101c29061023a906001600160a01b031682565b6101c290610a6a565b6101c290610a7e565b9061068990610a87565b634e487b7160e01b600052603260045260246000fd5b8054821015610ad357610aca600191600052602060002090565b91020190600090565b610a9a565b6101c2916008021c81565b906101c29154610ad8565b610afc600591600092610a90565b90610b05825490565b831015610b2057506101c291610b1a91610ab0565b90610ae3565b80fd5b34610187576101f2610358610b39366004610961565b90610aee565b3461018757610b4f3660046103da565b6101f27f9f2df0fed2c77648de5860a4cc508cd0818c85b8b8a1ab4ceeef8d981c8956a6610358565b3461018757610235610b8b366004610385565b90610d27565b90602082820312610187576101c291610378565b90610bc5610bbe610bb4845190565b8084529260200190565b9260200190565b9060005b818110610bd65750505090565b909192610bf3610bec6001928651815260200190565b9460200190565b929101610bc9565b60208082526101c292910190610ba5565b34610187576101f2610c27610c22366004610b91565b61188b565b60405191829182610bfb565b90610689565b6101c291610c5391610c4d60009182610c33565b01610a90565b6107a2565b6001610c716101c292610c69600090565b506000610c33565b0161069e565b906101ac91610c8d610c8882610c58565b610ca4565b90610c9791610d8f565b50565b906101ac91610c77565b6101ac903390610ccc565b6001600160a01b0390911681526040810192916101ac9160200152565b90610cde610cda8284610c39565b1590565b610ce6575050565b610d08610cf260405190565b63e2517d3f60e01b815292839260048401610caf565b0390fd5b906101ac91610d1d610c8882610c58565b90610c9791610e0b565b906101ac91610d0c565b90610d3b3361023a565b6001600160a01b03821603610d5357610c9791610e0b565b60405163334bd91960e11b8152600490fd5b9060ff905b9181191691161790565b90610d846101c2610d8b92151590565b8254610d65565b9055565b610d9c610cda8383610c39565b15610e0457600191610dbd83610db8836000610c4d8782610c33565b610d74565b3390610df3610ded610ded7f2f8788117e7eff1d82e926ec794901d17c78024a50270940304540a733656f0d9590565b92610a87565b92610dfd60405190565b600090a490565b5050600090565b90610e168183610c39565b15610e0457610e2f6000610db88382610c4d8782610c33565b3390610e5f610ded610ded7ff6391f5c32d9c69d2a47ea670b442974b53935d1edc7fd64eb21e047a839171b9590565b92610e6960405190565b600090a4600190565b6101c260016107a2565b6101c2959493929190610eae7f9f2df0fed2c77648de5860a4cc508cd0818c85b8b8a1ab4ceeef8d981c8956a6610ca4565b906101c29594939291610ebf611567565b90610ed59594939291610ed0611591565b6113b7565b906101ac6115db565b61023a6101c26101c29290565b6101c290610ede565b15610efb57565b60405162461bcd60e51b815260206004820152601760248201527f496e76616c69642073747564656e7420616464726573730000000000000000006044820152606490fd5b15610f4757565b60405162461bcd60e51b815260206004820152601260248201527110dbdd5c9cd9481251081c995c5d5a5c995960721b6044820152606490fd5b15610f8857565b60405162461bcd60e51b815260206004820152601460248201527310dbdd5c9cd9481b985b59481c995c5d5a5c995960621b6044820152606490fd5b15610fcb57565b60405162461bcd60e51b815260206004820152601260248201527112541194c81a185cda081c995c5d5a5c995960721b6044820152606490fd5b1561100c57565b60405162461bcd60e51b815260206004820152601760248201527f496e76616c696420636f6d706c6574696f6e20646174650000000000000000006044820152606490fd5b1561105857565b60405162461bcd60e51b815260206004820152601a60248201527f436572746966696361746520616c7265616479206578697374730000000000006044820152606490fd5b634e487b7160e01b600052601160045260246000fd5b60001981146110c25760010190565b61109d565b9060001990610d6a565b906110e16101c2610d8b92610672565b82546110c7565b6101c26101006104f8565b906001600160a01b0390610d6a565b906111126101c2610d8b92610a87565b82546110f3565b9160001960089290920291821b911b610d6a565b919061113e6101c2610d8b93610672565b908354611119565b6101ac9160009161112d565b81811061115d575050565b8061116b6000600193611146565b01611152565b9190601f811161118057505050565b6111926101ac93600052602060002090565b906020601f8401819004830193106111b4575b6020601f909101040190611152565b90915081906111a5565b906111c7815190565b9067ffffffffffffffff82116104f3576111eb826111e585546106be565b85611171565b602090601f831160011461122657610d8b92916000918361121b575b5050600019600883021c1916906002021790565b015190503880611207565b601f1983169161123b85600052602060002090565b9260005b81811061127957509160029391856001969410611260575b50505002019055565b01516000196008601f8516021c19169055388080611257565b9193602060018192878701518155019501920161123f565b906101ac916111be565b6101ac91906112b49060e0906007906112ba8185875190565b906110d1565b6112db600182016112d560208801516001600160a01b031690565b90611102565b6112f3600282016112ed604088015190565b90611291565b611305600382016112ed606088015190565b611317600482016112b4608088015190565b611329600582016112ed60a088015190565b6113436006820161133d60c0880151151590565b90610d74565b0192015190565b906101ac9161129b565b90815491680100000000000000008310156104f3578261137c9160016101ac95018155610ab0565b9061112d565b9392906113b26101ac936113a4604093606089019089820360008b0152610269565b908782036020890152610269565b940152565b5092939092916000906113c982610eeb565b6001600160a01b03166001600160a01b03851614156113e790610ef4565b84516113f283610672565b106113fc90610f40565b805161140783610672565b1061141190610f81565b825161141c83610672565b1061142690610fc4565b429161143483881115611005565b6006906114418583610a17565b61144a906107a2565b1561145490611051565b61145e600361069e565b611467906110b3565b6114729060036110d1565b61147c600361069e565b97600193896114896110e8565b938401526001600160a01b0388166020840152604083018990526060830152608082015260a0810185905282151560c08201526114c78460e0830152565b6114d288600461067f565b906114dc9161134a565b83876114e9876005610a90565b906114f391611354565b6114fc91610a17565b9061150691610d74565b7fa220121dae68feb03eca9f5b9665acae4c4eae049ae4819148b54b48aff0b71e9161153186610672565b9361153b90610a87565b9461154560405190565b9283926115529284611382565b0390a390565b6101c294939291906000610e7c565b61156f610e72565b61157557565b60405163d93c066560e01b8152600490fd5b6101c26002610672565b61159b600261069e565b6115a3611587565b9081906115af565b9190565b146115bf576101ac9060026110d1565b604051633ee5aeb560e01b8152600490fd5b6101c26001610672565b6101ac6115e66115d1565b60026110d1565b906101ac6116a660076115fe6110e8565b9461160f61160b8261069e565b8752565b61163661162660018301546001600160a01b031690565b6001600160a01b03166020880152565b61164c61164560028301610776565b6040880152565b61166261165b60038301610776565b6060880152565b6116786116716004830161069e565b6080880152565b61168e61168760058301610776565b60a0880152565b610c7161169d600683016107a2565b151560c0880152565b60e0840152565b6101c2906115ed565b156116bd57565b60405162461bcd60e51b815260206004820152601a60248201527f436572746966696361746520646f6573206e6f742065786973740000000000006044820152606490fd5b61171961171e91611711600090565b50600461067f565b6116ad565b9061173e61172a835190565b6117376115ab6000610672565b14156116b6565b60c082015115159061175a60208401516001600160a01b031690565b9260408101519260608201519260a0611774608085015190565b93015191959493929190565b90151581526040810192916101ac9160200152565b6117a361171982600461067f565b6117ae61172a825190565b60c001513390151591426117eb6117e57f701a047df369ee10e7cd6431b27b75996d2084160a65aee60285d46f066ed19793610672565b93610a87565b936118016117f860405190565b92839283611780565b0390a3565b90611821611815610bb4845490565b92600052602060002090565b9060005b8181106118325750505090565b90919261185661184f6001926118478761069e565b815260200190565b9460010190565b929101611825565b906101c291611806565b906101ac6107909261187960405190565b9384809261185e565b6101c290611868565b6118a26101c29161189a606090565b506005610a90565b611882565b6118af6110e8565b906000825260208080808080808089016000815201606081520160608152016000815201606081520160008152016000905250565b6101c26118a7565b6117196101c2916118fb6118e4565b50600461191061172a6000610c71858561067f565b61067f565b6101ac90611930600080516020611b87833981519152610ca4565b611981565b1561193c57565b60405162461bcd60e51b815260206004820152601b60248201527f436572746966696361746520616c7265616479207265766f6b656400000000006044820152606490fd5b6119c26119926101c283600461067f565b600661199d8261069e565b916119b06000936117376115ab86610672565b01610db86119bd826107a2565b611935565b3342916118016119f56117e57f1adbf4393900ce3a2332405b86649270c35d1316887336d83190dcbae6a423b993610672565b9361035c60405190565b6101ac90611915565b6101c291610c39565b6101c2600361069e565b611a32600080516020611b87833981519152610ca4565b6101ac6101ac611aa6565b6101ac611a1b565b611a4d611567565b6101ac611a5b600180610d74565b33611aa17f62e78cea01bee320cd4e420270b5ea74000d11b0c9f74754ebdbfc544b05a25891611a8a60405190565b918291826001600160a01b03909116815260200190565b0390a1565b6101ac611a45565b611ac5600080516020611b87833981519152610ca4565b6101ac6101ac611b1e565b6101ac611aae565b611ae0611b26565b6101ac611aef60006001610d74565b33611aa17f5db9ee0a495bf2e6ff9c91a7834c1ba4fdd244a5e8aa4e537bd38aeae4b073aa91611a8a60405190565b6101ac611ad8565b611b31610cda610e72565b611b3757565b604051638dfc202b60e01b8152600490fd5b6101c290637965db0b60e01b6001600160e01b0319821614908115611b6c575090565b6001600160e01b0319166301ffc9a760e01b1490506101c256fea49807205ce4d355092ef5a8a18f56e8913cf4a201fbe287825b095693c21775a2646970667358221220f79e9919cab350587a1de3f1b17627dcc547c5d1e546d61c6d87f7ad48beeef064736f6c63430008140033",
  "linkReferences": {},
  "deployedLinkReferences": {}
}